{
    "_format": "hh-sol-artifact-1",
    "contractName": "PolymorphRoot",
    "sourceName": "contracts/mainnet/PolymorphRoot.sol",
    "abi": [
        {
            "inputs": [
                {
                    "components": [
                        {
                            "internalType": "string",
                            "name": "name",
                            "type": "string"
                        },
                        {
                            "internalType": "string",
                            "name": "symbol",
                            "type": "string"
                        },
                        {
                            "internalType": "string",
                            "name": "baseURI",
                            "type": "string"
                        },
                        {
                            "internalType": "address payable",
                            "name": "_daoAddress",
                            "type": "address"
                        },
                        {
                            "internalType": "uint96",
                            "name": "_royaltyFee",
                            "type": "uint96"
                        },
                        {
                            "internalType": "uint256",
                            "name": "_baseGenomeChangePrice",
                            "type": "uint256"
                        },
                        {
                            "internalType": "uint256",
                            "name": "_polymorphPrice",
                            "type": "uint256"
                        },
                        {
                            "internalType": "uint256",
                            "name": "_maxSupply",
                            "type": "uint256"
                        },
                        {
                            "internalType": "uint256",
                            "name": "_randomizeGenomePrice",
                            "type": "uint256"
                        },
                        {
                            "internalType": "uint256",
                            "name": "_bulkBuyLimit",
                            "type": "uint256"
                        },
                        {
                            "internalType": "string",
                            "name": "_arweaveAssetsJSON",
                            "type": "string"
                        },
                        {
                            "internalType": "address",
                            "name": "_polymorphV1Address",
                            "type": "address"
                        }
                    ],
                    "internalType": "struct PolymorphRoot.Params",
                    "name": "params",
                    "type": "tuple"
                }
            ],
            "stateMutability": "nonpayable",
            "type": "constructor"
        },
        {
            "anonymous": false,
            "inputs": [
                {
                    "indexed": true,
                    "internalType": "address",
                    "name": "owner",
                    "type": "address"
                },
                {
                    "indexed": true,
                    "internalType": "address",
                    "name": "approved",
                    "type": "address"
                },
                {
                    "indexed": true,
                    "internalType": "uint256",
                    "name": "tokenId",
                    "type": "uint256"
                }
            ],
            "name": "Approval",
            "type": "event"
        },
        {
            "anonymous": false,
            "inputs": [
                {
                    "indexed": true,
                    "internalType": "address",
                    "name": "owner",
                    "type": "address"
                },
                {
                    "indexed": true,
                    "internalType": "address",
                    "name": "operator",
                    "type": "address"
                },
                {
                    "indexed": false,
                    "internalType": "bool",
                    "name": "approved",
                    "type": "bool"
                }
            ],
            "name": "ApprovalForAll",
            "type": "event"
        },
        {
            "anonymous": false,
            "inputs": [
                {
                    "indexed": false,
                    "internalType": "string",
                    "name": "arweaveAssetsJSON",
                    "type": "string"
                }
            ],
            "name": "ArweaveAssetsJSONChanged",
            "type": "event"
        },
        {
            "anonymous": false,
            "inputs": [
                {
                    "indexed": false,
                    "internalType": "uint256",
                    "name": "newGenomeChange",
                    "type": "uint256"
                }
            ],
            "name": "BaseGenomeChangePriceChanged",
            "type": "event"
        },
        {
            "anonymous": false,
            "inputs": [
                {
                    "indexed": false,
                    "internalType": "string",
                    "name": "baseURI",
                    "type": "string"
                }
            ],
            "name": "BaseURIChanged",
            "type": "event"
        },
        {
            "anonymous": false,
            "inputs": [
                {
                    "indexed": false,
                    "internalType": "uint256",
                    "name": "newBulkBuyLimit",
                    "type": "uint256"
                }
            ],
            "name": "BulkBuyLimitChanged",
            "type": "event"
        },
        {
            "anonymous": false,
            "inputs": [
                {
                    "indexed": true,
                    "internalType": "address",
                    "name": "owner",
                    "type": "address"
                },
                {
                    "indexed": true,
                    "internalType": "address",
                    "name": "consumer",
                    "type": "address"
                },
                {
                    "indexed": true,
                    "internalType": "uint256",
                    "name": "tokenId",
                    "type": "uint256"
                }
            ],
            "name": "ConsumerChanged",
            "type": "event"
        },
        {
            "anonymous": false,
            "inputs": [
                {
                    "indexed": false,
                    "internalType": "address",
                    "name": "newReceiver",
                    "type": "address"
                },
                {
                    "indexed": false,
                    "internalType": "uint96",
                    "name": "newDefaultRoyalty",
                    "type": "uint96"
                }
            ],
            "name": "DefaultRoyaltyChanged",
            "type": "event"
        },
        {
            "anonymous": false,
            "inputs": [
                {
                    "indexed": false,
                    "internalType": "uint256",
                    "name": "newMaxSupply",
                    "type": "uint256"
                }
            ],
            "name": "MaxSupplyChanged",
            "type": "event"
        },
        {
            "anonymous": false,
            "inputs": [
                {
                    "indexed": true,
                    "internalType": "address",
                    "name": "previousOwner",
                    "type": "address"
                },
                {
                    "indexed": true,
                    "internalType": "address",
                    "name": "newOwner",
                    "type": "address"
                }
            ],
            "name": "OwnershipTransferred",
            "type": "event"
        },
        {
            "anonymous": false,
            "inputs": [
                {
                    "indexed": false,
                    "internalType": "address",
                    "name": "account",
                    "type": "address"
                }
            ],
            "name": "Paused",
            "type": "event"
        },
        {
            "anonymous": false,
            "inputs": [
                {
                    "indexed": false,
                    "internalType": "uint256",
                    "name": "newPolymorphPrice",
                    "type": "uint256"
                }
            ],
            "name": "PolymorphPriceChanged",
            "type": "event"
        },
        {
            "anonymous": false,
            "inputs": [
                {
                    "indexed": false,
                    "internalType": "uint256",
                    "name": "newRandomizeGenomePriceChange",
                    "type": "uint256"
                }
            ],
            "name": "RandomizeGenomePriceChanged",
            "type": "event"
        },
        {
            "anonymous": false,
            "inputs": [
                {
                    "indexed": true,
                    "internalType": "bytes32",
                    "name": "role",
                    "type": "bytes32"
                },
                {
                    "indexed": true,
                    "internalType": "bytes32",
                    "name": "previousAdminRole",
                    "type": "bytes32"
                },
                {
                    "indexed": true,
                    "internalType": "bytes32",
                    "name": "newAdminRole",
                    "type": "bytes32"
                }
            ],
            "name": "RoleAdminChanged",
            "type": "event"
        },
        {
            "anonymous": false,
            "inputs": [
                {
                    "indexed": true,
                    "internalType": "bytes32",
                    "name": "role",
                    "type": "bytes32"
                },
                {
                    "indexed": true,
                    "internalType": "address",
                    "name": "account",
                    "type": "address"
                },
                {
                    "indexed": true,
                    "internalType": "address",
                    "name": "sender",
                    "type": "address"
                }
            ],
            "name": "RoleGranted",
            "type": "event"
        },
        {
            "anonymous": false,
            "inputs": [
                {
                    "indexed": true,
                    "internalType": "bytes32",
                    "name": "role",
                    "type": "bytes32"
                },
                {
                    "indexed": true,
                    "internalType": "address",
                    "name": "account",
                    "type": "address"
                },
                {
                    "indexed": true,
                    "internalType": "address",
                    "name": "sender",
                    "type": "address"
                }
            ],
            "name": "RoleRevoked",
            "type": "event"
        },
        {
            "anonymous": false,
            "inputs": [
                {
                    "indexed": true,
                    "internalType": "uint256",
                    "name": "tokenId",
                    "type": "uint256"
                },
                {
                    "indexed": false,
                    "internalType": "uint256",
                    "name": "gene",
                    "type": "uint256"
                }
            ],
            "name": "TokenBurnedAndMinted",
            "type": "event"
        },
        {
            "anonymous": false,
            "inputs": [
                {
                    "indexed": true,
                    "internalType": "uint256",
                    "name": "tokenId",
                    "type": "uint256"
                },
                {
                    "indexed": false,
                    "internalType": "uint256",
                    "name": "newGene",
                    "type": "uint256"
                }
            ],
            "name": "TokenMinted",
            "type": "event"
        },
        {
            "anonymous": false,
            "inputs": [
                {
                    "indexed": true,
                    "internalType": "uint256",
                    "name": "tokenId",
                    "type": "uint256"
                },
                {
                    "indexed": false,
                    "internalType": "uint256",
                    "name": "oldGene",
                    "type": "uint256"
                },
                {
                    "indexed": false,
                    "internalType": "uint256",
                    "name": "newGene",
                    "type": "uint256"
                },
                {
                    "indexed": false,
                    "internalType": "uint256",
                    "name": "price",
                    "type": "uint256"
                },
                {
                    "indexed": false,
                    "internalType": "enum Polymorph.PolymorphEventType",
                    "name": "eventType",
                    "type": "uint8"
                }
            ],
            "name": "TokenMorphed",
            "type": "event"
        },
        {
            "anonymous": false,
            "inputs": [
                {
                    "indexed": true,
                    "internalType": "address",
                    "name": "from",
                    "type": "address"
                },
                {
                    "indexed": true,
                    "internalType": "address",
                    "name": "to",
                    "type": "address"
                },
                {
                    "indexed": true,
                    "internalType": "uint256",
                    "name": "tokenId",
                    "type": "uint256"
                }
            ],
            "name": "Transfer",
            "type": "event"
        },
        {
            "anonymous": false,
            "inputs": [
                {
                    "indexed": false,
                    "internalType": "address",
                    "name": "account",
                    "type": "address"
                }
            ],
            "name": "Unpaused",
            "type": "event"
        },
        {
            "inputs": [],
            "name": "DEFAULT_ADMIN_ROLE",
            "outputs": [
                {
                    "internalType": "bytes32",
                    "name": "",
                    "type": "bytes32"
                }
            ],
            "stateMutability": "view",
            "type": "function"
        },
        {
            "inputs": [],
            "name": "MINTER_ROLE",
            "outputs": [
                {
                    "internalType": "bytes32",
                    "name": "",
                    "type": "bytes32"
                }
            ],
            "stateMutability": "view",
            "type": "function"
        },
        {
            "inputs": [],
            "name": "PAUSER_ROLE",
            "outputs": [
                {
                    "internalType": "bytes32",
                    "name": "",
                    "type": "bytes32"
                }
            ],
            "stateMutability": "view",
            "type": "function"
        },
        {
            "inputs": [
                {
                    "internalType": "address",
                    "name": "to",
                    "type": "address"
                },
                {
                    "internalType": "uint256",
                    "name": "tokenId",
                    "type": "uint256"
                }
            ],
            "name": "approve",
            "outputs": [],
            "stateMutability": "nonpayable",
            "type": "function"
        },
        {
            "inputs": [],
            "name": "arweaveAssetsJSON",
            "outputs": [
                {
                    "internalType": "string",
                    "name": "",
                    "type": "string"
                }
            ],
            "stateMutability": "view",
            "type": "function"
        },
        {
            "inputs": [
                {
                    "internalType": "address",
                    "name": "owner",
                    "type": "address"
                }
            ],
            "name": "balanceOf",
            "outputs": [
                {
                    "internalType": "uint256",
                    "name": "",
                    "type": "uint256"
                }
            ],
            "stateMutability": "view",
            "type": "function"
        },
        {
            "inputs": [],
            "name": "baseGenomeChangePrice",
            "outputs": [
                {
                    "internalType": "uint256",
                    "name": "",
                    "type": "uint256"
                }
            ],
            "stateMutability": "view",
            "type": "function"
        },
        {
            "inputs": [],
            "name": "baseURI",
            "outputs": [
                {
                    "internalType": "string",
                    "name": "",
                    "type": "string"
                }
            ],
            "stateMutability": "view",
            "type": "function"
        },
        {
            "inputs": [
                {
                    "internalType": "uint256",
                    "name": "amount",
                    "type": "uint256"
                }
            ],
            "name": "bulkBuy",
            "outputs": [],
            "stateMutability": "payable",
            "type": "function"
        },
        {
            "inputs": [],
            "name": "bulkBuyLimit",
            "outputs": [
                {
                    "internalType": "uint256",
                    "name": "",
                    "type": "uint256"
                }
            ],
            "stateMutability": "view",
            "type": "function"
        },
        {
            "inputs": [
                {
                    "internalType": "uint256",
                    "name": "tokenId",
                    "type": "uint256"
                }
            ],
            "name": "burn",
            "outputs": [],
            "stateMutability": "nonpayable",
            "type": "function"
        },
        {
            "inputs": [
                {
                    "internalType": "uint256[]",
                    "name": "tokenIds",
                    "type": "uint256[]"
                }
            ],
            "name": "burnAndMintNewPolymorph",
            "outputs": [],
            "stateMutability": "nonpayable",
            "type": "function"
        },
        {
            "inputs": [
                {
                    "internalType": "address",
                    "name": "",
                    "type": "address"
                }
            ],
            "name": "burnCount",
            "outputs": [
                {
                    "internalType": "uint256",
                    "name": "",
                    "type": "uint256"
                }
            ],
            "stateMutability": "view",
            "type": "function"
        },
        {
            "inputs": [
                {
                    "internalType": "uint256",
                    "name": "newGenomeChangePrice",
                    "type": "uint256"
                }
            ],
            "name": "changeBaseGenomeChangePrice",
            "outputs": [],
            "stateMutability": "nonpayable",
            "type": "function"
        },
        {
            "inputs": [
                {
                    "internalType": "address",
                    "name": "_consumer",
                    "type": "address"
                },
                {
                    "internalType": "uint256",
                    "name": "_tokenId",
                    "type": "uint256"
                }
            ],
            "name": "changeConsumer",
            "outputs": [],
            "stateMutability": "nonpayable",
            "type": "function"
        },
        {
            "inputs": [
                {
                    "internalType": "uint256",
                    "name": "newRandomizeGenomePrice",
                    "type": "uint256"
                }
            ],
            "name": "changeRandomizeGenomePrice",
            "outputs": [],
            "stateMutability": "nonpayable",
            "type": "function"
        },
        {
            "inputs": [
                {
                    "internalType": "uint256",
                    "name": "_tokenId",
                    "type": "uint256"
                }
            ],
            "name": "consumerOf",
            "outputs": [
                {
                    "internalType": "address",
                    "name": "",
                    "type": "address"
                }
            ],
            "stateMutability": "view",
            "type": "function"
        },
        {
            "inputs": [],
            "name": "daoAddress",
            "outputs": [
                {
                    "internalType": "address payable",
                    "name": "",
                    "type": "address"
                }
            ],
            "stateMutability": "view",
            "type": "function"
        },
        {
            "inputs": [
                {
                    "internalType": "uint256",
                    "name": "tokenId",
                    "type": "uint256"
                }
            ],
            "name": "geneOf",
            "outputs": [
                {
                    "internalType": "uint256",
                    "name": "gene",
                    "type": "uint256"
                }
            ],
            "stateMutability": "view",
            "type": "function"
        },
        {
            "inputs": [
                {
                    "internalType": "uint256",
                    "name": "tokenId",
                    "type": "uint256"
                }
            ],
            "name": "genomeChanges",
            "outputs": [
                {
                    "internalType": "uint256",
                    "name": "genomeChnages",
                    "type": "uint256"
                }
            ],
            "stateMutability": "view",
            "type": "function"
        },
        {
            "inputs": [
                {
                    "internalType": "uint256",
                    "name": "tokenId",
                    "type": "uint256"
                }
            ],
            "name": "getApproved",
            "outputs": [
                {
                    "internalType": "address",
                    "name": "",
                    "type": "address"
                }
            ],
            "stateMutability": "view",
            "type": "function"
        },
        {
            "inputs": [
                {
                    "internalType": "bytes32",
                    "name": "role",
                    "type": "bytes32"
                }
            ],
            "name": "getRoleAdmin",
            "outputs": [
                {
                    "internalType": "bytes32",
                    "name": "",
                    "type": "bytes32"
                }
            ],
            "stateMutability": "view",
            "type": "function"
        },
        {
            "inputs": [
                {
                    "internalType": "bytes32",
                    "name": "role",
                    "type": "bytes32"
                },
                {
                    "internalType": "uint256",
                    "name": "index",
                    "type": "uint256"
                }
            ],
            "name": "getRoleMember",
            "outputs": [
                {
                    "internalType": "address",
                    "name": "",
                    "type": "address"
                }
            ],
            "stateMutability": "view",
            "type": "function"
        },
        {
            "inputs": [
                {
                    "internalType": "bytes32",
                    "name": "role",
                    "type": "bytes32"
                }
            ],
            "name": "getRoleMemberCount",
            "outputs": [
                {
                    "internalType": "uint256",
                    "name": "",
                    "type": "uint256"
                }
            ],
            "stateMutability": "view",
            "type": "function"
        },
        {
            "inputs": [
                {
                    "internalType": "bytes32",
                    "name": "role",
                    "type": "bytes32"
                },
                {
                    "internalType": "address",
                    "name": "account",
                    "type": "address"
                }
            ],
            "name": "grantRole",
            "outputs": [],
            "stateMutability": "nonpayable",
            "type": "function"
        },
        {
            "inputs": [
                {
                    "internalType": "bytes32",
                    "name": "role",
                    "type": "bytes32"
                },
                {
                    "internalType": "address",
                    "name": "account",
                    "type": "address"
                }
            ],
            "name": "hasRole",
            "outputs": [
                {
                    "internalType": "bool",
                    "name": "",
                    "type": "bool"
                }
            ],
            "stateMutability": "view",
            "type": "function"
        },
        {
            "inputs": [
                {
                    "internalType": "address",
                    "name": "owner",
                    "type": "address"
                },
                {
                    "internalType": "address",
                    "name": "operator",
                    "type": "address"
                }
            ],
            "name": "isApprovedForAll",
            "outputs": [
                {
                    "internalType": "bool",
                    "name": "",
                    "type": "bool"
                }
            ],
            "stateMutability": "view",
            "type": "function"
        },
        {
            "inputs": [
                {
                    "internalType": "uint256",
                    "name": "",
                    "type": "uint256"
                }
            ],
            "name": "isNotVirgin",
            "outputs": [
                {
                    "internalType": "bool",
                    "name": "",
                    "type": "bool"
                }
            ],
            "stateMutability": "view",
            "type": "function"
        },
        {
            "inputs": [],
            "name": "lastTokenId",
            "outputs": [
                {
                    "internalType": "uint256",
                    "name": "tokenId",
                    "type": "uint256"
                }
            ],
            "stateMutability": "view",
            "type": "function"
        },
        {
            "inputs": [],
            "name": "maxSupply",
            "outputs": [
                {
                    "internalType": "uint256",
                    "name": "",
                    "type": "uint256"
                }
            ],
            "stateMutability": "view",
            "type": "function"
        },
        {
            "inputs": [],
            "name": "mint",
            "outputs": [],
            "stateMutability": "payable",
            "type": "function"
        },
        {
            "inputs": [
                {
                    "internalType": "address",
                    "name": "to",
                    "type": "address"
                }
            ],
            "name": "mint",
            "outputs": [],
            "stateMutability": "pure",
            "type": "function"
        },
        {
            "inputs": [
                {
                    "internalType": "uint256",
                    "name": "tokenId",
                    "type": "uint256"
                },
                {
                    "internalType": "uint256",
                    "name": "genePosition",
                    "type": "uint256"
                }
            ],
            "name": "morphGene",
            "outputs": [],
            "stateMutability": "payable",
            "type": "function"
        },
        {
            "inputs": [],
            "name": "name",
            "outputs": [
                {
                    "internalType": "string",
                    "name": "",
                    "type": "string"
                }
            ],
            "stateMutability": "view",
            "type": "function"
        },
        {
            "inputs": [],
            "name": "owner",
            "outputs": [
                {
                    "internalType": "address",
                    "name": "",
                    "type": "address"
                }
            ],
            "stateMutability": "view",
            "type": "function"
        },
        {
            "inputs": [
                {
                    "internalType": "uint256",
                    "name": "tokenId",
                    "type": "uint256"
                }
            ],
            "name": "ownerOf",
            "outputs": [
                {
                    "internalType": "address",
                    "name": "",
                    "type": "address"
                }
            ],
            "stateMutability": "view",
            "type": "function"
        },
        {
            "inputs": [],
            "name": "pause",
            "outputs": [],
            "stateMutability": "nonpayable",
            "type": "function"
        },
        {
            "inputs": [],
            "name": "paused",
            "outputs": [
                {
                    "internalType": "bool",
                    "name": "",
                    "type": "bool"
                }
            ],
            "stateMutability": "view",
            "type": "function"
        },
        {
            "inputs": [],
            "name": "polymorphPrice",
            "outputs": [
                {
                    "internalType": "uint256",
                    "name": "",
                    "type": "uint256"
                }
            ],
            "stateMutability": "view",
            "type": "function"
        },
        {
            "inputs": [],
            "name": "polymorphV1Contract",
            "outputs": [
                {
                    "internalType": "contract Polymorph",
                    "name": "",
                    "type": "address"
                }
            ],
            "stateMutability": "view",
            "type": "function"
        },
        {
            "inputs": [
                {
                    "internalType": "uint256",
                    "name": "tokenId",
                    "type": "uint256"
                }
            ],
            "name": "priceForGenomeChange",
            "outputs": [
                {
                    "internalType": "uint256",
                    "name": "price",
                    "type": "uint256"
                }
            ],
            "stateMutability": "view",
            "type": "function"
        },
        {
            "inputs": [
                {
                    "internalType": "uint256",
                    "name": "tokenId",
                    "type": "uint256"
                }
            ],
            "name": "randomizeGenome",
            "outputs": [],
            "stateMutability": "payable",
            "type": "function"
        },
        {
            "inputs": [],
            "name": "randomizeGenomePrice",
            "outputs": [
                {
                    "internalType": "uint256",
                    "name": "",
                    "type": "uint256"
                }
            ],
            "stateMutability": "view",
            "type": "function"
        },
        {
            "inputs": [],
            "name": "renounceOwnership",
            "outputs": [],
            "stateMutability": "nonpayable",
            "type": "function"
        },
        {
            "inputs": [
                {
                    "internalType": "bytes32",
                    "name": "role",
                    "type": "bytes32"
                },
                {
                    "internalType": "address",
                    "name": "account",
                    "type": "address"
                }
            ],
            "name": "renounceRole",
            "outputs": [],
            "stateMutability": "nonpayable",
            "type": "function"
        },
        {
            "inputs": [
                {
                    "internalType": "bytes32",
                    "name": "role",
                    "type": "bytes32"
                },
                {
                    "internalType": "address",
                    "name": "account",
                    "type": "address"
                }
            ],
            "name": "revokeRole",
            "outputs": [],
            "stateMutability": "nonpayable",
            "type": "function"
        },
        {
            "inputs": [
                {
                    "internalType": "uint256",
                    "name": "_tokenId",
                    "type": "uint256"
                },
                {
                    "internalType": "uint256",
                    "name": "_salePrice",
                    "type": "uint256"
                }
            ],
            "name": "royaltyInfo",
            "outputs": [
                {
                    "internalType": "address",
                    "name": "",
                    "type": "address"
                },
                {
                    "internalType": "uint256",
                    "name": "",
                    "type": "uint256"
                }
            ],
            "stateMutability": "view",
            "type": "function"
        },
        {
            "inputs": [
                {
                    "internalType": "address",
                    "name": "from",
                    "type": "address"
                },
                {
                    "internalType": "address",
                    "name": "to",
                    "type": "address"
                },
                {
                    "internalType": "uint256",
                    "name": "tokenId",
                    "type": "uint256"
                }
            ],
            "name": "safeTransferFrom",
            "outputs": [],
            "stateMutability": "nonpayable",
            "type": "function"
        },
        {
            "inputs": [
                {
                    "internalType": "address",
                    "name": "from",
                    "type": "address"
                },
                {
                    "internalType": "address",
                    "name": "to",
                    "type": "address"
                },
                {
                    "internalType": "uint256",
                    "name": "tokenId",
                    "type": "uint256"
                },
                {
                    "internalType": "bytes",
                    "name": "_data",
                    "type": "bytes"
                }
            ],
            "name": "safeTransferFrom",
            "outputs": [],
            "stateMutability": "nonpayable",
            "type": "function"
        },
        {
            "inputs": [
                {
                    "internalType": "address",
                    "name": "operator",
                    "type": "address"
                },
                {
                    "internalType": "bool",
                    "name": "approved",
                    "type": "bool"
                }
            ],
            "name": "setApprovalForAll",
            "outputs": [],
            "stateMutability": "nonpayable",
            "type": "function"
        },
        {
            "inputs": [
                {
                    "internalType": "string",
                    "name": "_arweaveAssetsJSON",
                    "type": "string"
                }
            ],
            "name": "setArweaveAssetsJSON",
            "outputs": [],
            "stateMutability": "nonpayable",
            "type": "function"
        },
        {
            "inputs": [
                {
                    "internalType": "string",
                    "name": "_baseURI",
                    "type": "string"
                }
            ],
            "name": "setBaseURI",
            "outputs": [],
            "stateMutability": "nonpayable",
            "type": "function"
        },
        {
            "inputs": [
                {
                    "internalType": "uint256",
                    "name": "_bulkBuyLimit",
                    "type": "uint256"
                }
            ],
            "name": "setBulkBuyLimit",
            "outputs": [],
            "stateMutability": "nonpayable",
            "type": "function"
        },
        {
            "inputs": [
                {
                    "internalType": "address",
                    "name": "receiver",
                    "type": "address"
                },
                {
                    "internalType": "uint96",
                    "name": "royaltyFee",
                    "type": "uint96"
                }
            ],
            "name": "setDefaultRoyalty",
            "outputs": [],
            "stateMutability": "nonpayable",
            "type": "function"
        },
        {
            "inputs": [
                {
                    "internalType": "uint256",
                    "name": "_maxSupply",
                    "type": "uint256"
                }
            ],
            "name": "setMaxSupply",
            "outputs": [],
            "stateMutability": "nonpayable",
            "type": "function"
        },
        {
            "inputs": [
                {
                    "internalType": "uint256",
                    "name": "newPolymorphPrice",
                    "type": "uint256"
                }
            ],
            "name": "setPolymorphPrice",
            "outputs": [],
            "stateMutability": "nonpayable",
            "type": "function"
        },
        {
            "inputs": [
                {
                    "internalType": "bytes4",
                    "name": "interfaceId",
                    "type": "bytes4"
                }
            ],
            "name": "supportsInterface",
            "outputs": [
                {
                    "internalType": "bool",
                    "name": "",
                    "type": "bool"
                }
            ],
            "stateMutability": "view",
            "type": "function"
        },
        {
            "inputs": [],
            "name": "symbol",
            "outputs": [
                {
                    "internalType": "string",
                    "name": "",
                    "type": "string"
                }
            ],
            "stateMutability": "view",
            "type": "function"
        },
        {
            "inputs": [
                {
                    "internalType": "uint256",
                    "name": "index",
                    "type": "uint256"
                }
            ],
            "name": "tokenByIndex",
            "outputs": [
                {
                    "internalType": "uint256",
                    "name": "",
                    "type": "uint256"
                }
            ],
            "stateMutability": "view",
            "type": "function"
        },
        {
            "inputs": [
                {
                    "internalType": "address",
                    "name": "owner",
                    "type": "address"
                },
                {
                    "internalType": "uint256",
                    "name": "index",
                    "type": "uint256"
                }
            ],
            "name": "tokenOfOwnerByIndex",
            "outputs": [
                {
                    "internalType": "uint256",
                    "name": "",
                    "type": "uint256"
                }
            ],
            "stateMutability": "view",
            "type": "function"
        },
        {
            "inputs": [
                {
                    "internalType": "uint256",
                    "name": "tokenId",
                    "type": "uint256"
                }
            ],
            "name": "tokenURI",
            "outputs": [
                {
                    "internalType": "string",
                    "name": "",
                    "type": "string"
                }
            ],
            "stateMutability": "view",
            "type": "function"
        },
        {
            "inputs": [],
            "name": "totalSupply",
            "outputs": [
                {
                    "internalType": "uint256",
                    "name": "",
                    "type": "uint256"
                }
            ],
            "stateMutability": "view",
            "type": "function"
        },
        {
            "inputs": [
                {
                    "internalType": "address",
                    "name": "from",
                    "type": "address"
                },
                {
                    "internalType": "address",
                    "name": "to",
                    "type": "address"
                },
                {
                    "internalType": "uint256",
                    "name": "tokenId",
                    "type": "uint256"
                }
            ],
            "name": "transferFrom",
            "outputs": [],
            "stateMutability": "nonpayable",
            "type": "function"
        },
        {
            "inputs": [
                {
                    "internalType": "address",
                    "name": "newOwner",
                    "type": "address"
                }
            ],
            "name": "transferOwnership",
            "outputs": [],
            "stateMutability": "nonpayable",
            "type": "function"
        },
        {
            "inputs": [],
            "name": "unpause",
            "outputs": [],
            "stateMutability": "nonpayable",
            "type": "function"
        },
        {
            "inputs": [
                {
                    "internalType": "address",
                    "name": "bridgeAddress",
                    "type": "address"
                },
                {
                    "internalType": "bool",
                    "name": "status",
                    "type": "bool"
                }
            ],
            "name": "whitelistBridgeAddress",
            "outputs": [],
            "stateMutability": "nonpayable",
            "type": "function"
        },
        {
            "inputs": [
                {
                    "internalType": "address",
                    "name": "",
                    "type": "address"
                }
            ],
            "name": "whitelistTunnelAddresses",
            "outputs": [
                {
                    "internalType": "bool",
                    "name": "",
                    "type": "bool"
                }
            ],
            "stateMutability": "view",
            "type": "function"
        },
        {
            "inputs": [
                {
                    "internalType": "uint256",
                    "name": "tokenId",
                    "type": "uint256"
                },
                {
                    "internalType": "uint256",
                    "name": "gene",
                    "type": "uint256"
                },
                {
                    "internalType": "bool",
                    "name": "isVirgin",
                    "type": "bool"
                },
                {
                    "internalType": "uint256",
                    "name": "genomeChangesCount",
                    "type": "uint256"
                }
            ],
            "name": "wormholeUpdateGene",
            "outputs": [],
            "stateMutability": "nonpayable",
            "type": "function"
        },
        {
            "stateMutability": "payable",
            "type": "receive"
        }
    ],
    "bytecode": "0x60806040523480156200001157600080fd5b50604051620053ba380380620053ba833981016040819052620000349162000748565b80600001518160200151826040015183606001518460a00151856101000151866101400151868686868481858585828281600290805190602001906200007c92919062000563565b5080516200009290600390602084019062000563565b5050600d805460ff19169055508051620000b490601190602084019062000563565b50620000c260003362000205565b620000ee7f9f2df0fed2c77648de5860a4cc508cd0818c85b8b8a1ab4ceeef8d981c8956a63362000205565b6200011a7f65d7a28e3265b37a6474929f336521b332c1681b933f6cb9f3376673440d862a3362000205565b5050600160125550601380546001600160a01b0319166001600160a01b0392909216919091179055620001546200014e3390565b62000215565b80516200016990601790602084019062000563565b505050601b95909555505050601c555050505060c0820151601d555060e0810151601e55610120810151601f55610160810151602080546001600160a01b0319166001600160a01b03909216919091178155620001d29060159062000267811b6200291817901c565b50601054620001e59061271090620008be565b60105560608101516080820151620001fe919062000309565b506200092f565b6200021182826200040e565b5050565b601480546001600160a01b038381166001600160a01b0319831681179093556040519116919082907f8be0079c531659141344cd1fd0a4f28419497f9722a3daafe3b4186f6b6457e090600090a35050565b600033325a8454424380406200027f606483620008d9565b6040516001600160601b03196060998a1b811660208301529790981b909616603488015260488701949094526068860192909252608885015260a884015260c88301524060e88201526101080160408051601f198184030181528282528051602091820120908301520160408051601f198184030181529190528051602090910120918290555090565b6127106001600160601b03821611156200037d5760405162461bcd60e51b815260206004820152602a60248201527f455243323938313a20726f79616c7479206665652077696c6c206578636565646044820152692073616c65507269636560b01b60648201526084015b60405180910390fd5b6001600160a01b038216620003d55760405162461bcd60e51b815260206004820152601960248201527f455243323938313a20696e76616c696420726563656976657200000000000000604482015260640162000374565b604080518082019091526001600160a01b039092168083526001600160601b039091166020909201829052600160a01b90910217600e55565b6200042582826200045160201b620029bd1760201c565b60008281526001602090815260409091206200044c91839062002a41620004f1821b17901c565b505050565b6000828152602081815260408083206001600160a01b038516845290915290205460ff1662000211576000828152602081815260408083206001600160a01b03851684529091529020805460ff19166001179055620004ad3390565b6001600160a01b0316816001600160a01b0316837f2f8788117e7eff1d82e926ec794901d17c78024a50270940304540a733656f0d60405160405180910390a45050565b600062000508836001600160a01b03841662000511565b90505b92915050565b60008181526001830160205260408120546200055a575081546001818101845560008481526020808220909301849055845484825282860190935260409020919091556200050b565b5060006200050b565b8280546200057190620008f3565b90600052602060002090601f016020900481019282620005955760008555620005e0565b82601f10620005b057805160ff1916838001178555620005e0565b82800160010185558215620005e0579182015b82811115620005e0578251825591602001919060010190620005c3565b50620005ee929150620005f2565b5090565b5b80821115620005ee5760008155600101620005f3565b634e487b7160e01b600052604160045260246000fd5b60405161018081016001600160401b038111828210171562000645576200064562000609565b60405290565b604051601f8201601f191681016001600160401b038111828210171562000676576200067662000609565b604052919050565b600082601f8301126200069057600080fd5b81516001600160401b03811115620006ac57620006ac62000609565b6020620006c2601f8301601f191682016200064b565b8281528582848701011115620006d757600080fd5b60005b83811015620006f7578581018301518282018401528201620006da565b83811115620007095760008385840101525b5095945050505050565b80516001600160a01b03811681146200072b57600080fd5b919050565b80516001600160601b03811681146200072b57600080fd5b6000602082840312156200075b57600080fd5b81516001600160401b03808211156200077357600080fd5b9083019061018082860312156200078957600080fd5b620007936200061f565b825182811115620007a357600080fd5b620007b1878286016200067e565b825250602083015182811115620007c757600080fd5b620007d5878286016200067e565b602083015250604083015182811115620007ee57600080fd5b620007fc878286016200067e565b604083015250620008106060840162000713565b6060820152620008236080840162000730565b608082015260a083015160a082015260c083015160c082015260e083015160e082015261010080840151818301525061012080840151818301525061014080840151838111156200087357600080fd5b62000881888287016200067e565b82840152505061016091506200089982840162000713565b91810191909152949350505050565b634e487b7160e01b600052601160045260246000fd5b60008219821115620008d457620008d4620008a8565b500190565b600082821015620008ee57620008ee620008a8565b500390565b600181811c908216806200090857607f821691505b6020821081036200092957634e487b7160e01b600052602260045260246000fd5b50919050565b614a7b806200093f6000396000f3fe6080604052600436106103f35760003560e01c80636c0360eb11610208578063b88d4fde11610118578063d5a83d3e116100ab578063e985e9c51161007a578063e985e9c514610c04578063ec9c074c14610c24578063f2fde38b14610c3a578063f528a62714610c5a578063f84ddf0b14610c6f57600080fd5b8063d5a83d3e14610b87578063d5abeb0114610b9a578063e589233114610bb0578063e63ab1e914610bd057600080fd5b8063ce14617d116100e7578063ce14617d14610afd578063d45351e514610b13578063d539139314610b33578063d547741f14610b6757600080fd5b8063b88d4fde14610a6d578063c87b56dd14610a8d578063ca15c87314610aad578063cccb6d0d14610acd57600080fd5b80639010d07c1161019b5780639e7bb4671161016a5780639e7bb467146109ef578063a217fddf14610a02578063a22cb46514610a17578063a49bccca14610a37578063ab39a3c814610a4d57600080fd5b80639010d07c1461097a57806391d148541461099a57806395d89b41146109ba57806398c5c078146109cf57600080fd5b806370b5aecb116101d757806370b5aecb14610912578063715018a6146109325780638456cb59146109475780638da5cb5b1461095c57600080fd5b80636c0360eb146108a75780636f8b44b0146108bc578063704ec036146108dc57806370a08231146108f257600080fd5b80632f745c591161030357806356a5c926116102965780635e468dfd116102655780635e468dfd146107fa5780636352211e1461081a5780636a1c03dc1461083a5780636a5be6861461085a5780636a6278421461088757600080fd5b806356a5c9261461078f57806356b1b300146107a2578063572a1070146107c25780635c975abb146107e257600080fd5b806342966c68116102d257806342966c68146106ff5780634df774161461071f5780634f6ccce71461074f57806355f804b31461076f57600080fd5b80632f745c591461068a57806336568abe146106aa5780633f4ba83a146106ca57806342842e0e146106df57600080fd5b806318160ddd11610386578063248a9ca311610355578063248a9ca3146105bb57806325b081ff146105eb578063289ea0a91461060b5780632a55205a1461062b5780632f2ff15d1461066a57600080fd5b806318160ddd146105395780632131c68c1461054e57806323b872dd1461056e57806323c8d07a1461058e57600080fd5b8063081812fc116103c2578063081812fc1461049e578063095ea7b3146104d65780631249c58b146104f657806315889e43146104fe57600080fd5b8063017f1e341461040757806301ffc9a71461042757806304634d8d1461045c57806306fdde031461047c57600080fd5b3661040257610400610c84565b005b600080fd5b34801561041357600080fd5b50610400610422366004614081565b610e5f565b34801561043357600080fd5b506104476104423660046140b0565b610ec5565b60405190151581526020015b60405180910390f35b34801561046857600080fd5b506104006104773660046140e2565b610ed6565b34801561048857600080fd5b50610491610f58565b604051610453919061417f565b3480156104aa57600080fd5b506104be6104b9366004614081565b610fea565b6040516001600160a01b039091168152602001610453565b3480156104e257600080fd5b506104006104f1366004614192565b61107f565b610400610c84565b34801561050a57600080fd5b5061052b6105193660046141be565b60216020526000908152604090205481565b604051908152602001610453565b34801561054557600080fd5b50600b5461052b565b34801561055a57600080fd5b506013546104be906001600160a01b031681565b34801561057a57600080fd5b506104006105893660046141db565b611194565b34801561059a57600080fd5b5061052b6105a9366004614081565b60009081526019602052604090205490565b3480156105c757600080fd5b5061052b6105d6366004614081565b60009081526020819052604090206001015490565b3480156105f757600080fd5b506020546104be906001600160a01b031681565b34801561061757600080fd5b50610400610626366004614081565b6111c6565b34801561063757600080fd5b5061064b61064636600461421c565b611225565b604080516001600160a01b039093168352602083019190915201610453565b34801561067657600080fd5b5061040061068536600461423e565b6112d1565b34801561069657600080fd5b5061052b6106a5366004614192565b6112f7565b3480156106b657600080fd5b506104006106c536600461423e565b61138d565b3480156106d657600080fd5b5061040061140b565b3480156106eb57600080fd5b506104006106fa3660046141db565b6114b3565b34801561070b57600080fd5b5061040061071a366004614081565b6114ce565b34801561072b57600080fd5b5061044761073a366004614081565b601a6020526000908152604090205460ff1681565b34801561075b57600080fd5b5061052b61076a366004614081565b611548565b34801561077b57600080fd5b5061040061078a3660046142ef565b6115db565b61040061079d36600461421c565b61163d565b3480156107ae57600080fd5b506104006107bd3660046142ef565b61181a565b3480156107ce57600080fd5b506104006107dd366004614338565b611887565b3480156107ee57600080fd5b50600d5460ff16610447565b34801561080657600080fd5b50610400610815366004614081565b611b46565b34801561082657600080fd5b506104be610835366004614081565b611ba5565b34801561084657600080fd5b506104006108553660046143c2565b611c1c565b34801561086657600080fd5b5061052b610875366004614081565b60009081526016602052604090205490565b34801561089357600080fd5b506104006108a23660046141be565b611d1e565b3480156108b357600080fd5b50610491611d66565b3480156108c857600080fd5b506104006108d7366004614081565b611d75565b3480156108e857600080fd5b5061052b601d5481565b3480156108fe57600080fd5b5061052b61090d3660046141be565b611dd4565b34801561091e57600080fd5b5061040061092d366004614192565b611e5b565b34801561093e57600080fd5b50610400611f87565b34801561095357600080fd5b50610400611feb565b34801561096857600080fd5b506014546001600160a01b03166104be565b34801561098657600080fd5b506104be61099536600461421c565b61208f565b3480156109a657600080fd5b506104476109b536600461423e565b6120ae565b3480156109c657600080fd5b506104916120d7565b3480156109db57600080fd5b506104006109ea366004614081565b6120e6565b6104006109fd366004614081565b612145565b348015610a0e57600080fd5b5061052b600081565b348015610a2357600080fd5b50610400610a323660046143ff565b6122b2565b348015610a4357600080fd5b5061052b601f5481565b348015610a5957600080fd5b50610400610a683660046143ff565b6122bd565b348015610a7957600080fd5b50610400610a88366004614434565b612312565b348015610a9957600080fd5b50610491610aa8366004614081565b61234a565b348015610ab957600080fd5b5061052b610ac8366004614081565b612424565b348015610ad957600080fd5b50610447610ae83660046141be565b60186020526000908152604090205460ff1681565b348015610b0957600080fd5b5061052b601b5481565b348015610b1f57600080fd5b5061052b610b2e366004614081565b61243b565b348015610b3f57600080fd5b5061052b7f9f2df0fed2c77648de5860a4cc508cd0818c85b8b8a1ab4ceeef8d981c8956a681565b348015610b7357600080fd5b50610400610b8236600461423e565b61245b565b610400610b95366004614081565b612481565b348015610ba657600080fd5b5061052b601e5481565b348015610bbc57600080fd5b506104be610bcb366004614081565b6126f5565b348015610bdc57600080fd5b5061052b7f65d7a28e3265b37a6474929f336521b332c1681b933f6cb9f3376673440d862a81565b348015610c1057600080fd5b50610447610c1f3660046144b4565b612794565b348015610c3057600080fd5b5061052b601c5481565b348015610c4657600080fd5b50610400610c553660046141be565b6127c2565b348015610c6657600080fd5b5061049161288a565b348015610c7b57600080fd5b5060105461052b565b600260125403610caf5760405162461bcd60e51b8152600401610ca6906144e2565b60405180910390fd5b6002601255601e5460105410610cfe5760405162461bcd60e51b8152602060048201526014602482015273151bdd185b081cdd5c1c1b1e481c995858da195960621b6044820152606401610ca6565b601d54341015610d205760405162461bcd60e51b8152600401610ca690614519565b60108054906000610d308361455b565b9190505550610d3f6015612918565b601054600090815260166020526040902055610d5e335b601054612a56565b601354601d546040516000926001600160a01b031691908381818185875af1925050503d8060008114610dad576040519150601f19603f3d011682016040523d82523d6000602084013e610db2565b606091505b5050905080610dd35760405162461bcd60e51b8152600401610ca690614574565b6010546000818152601660209081526040918290205491519182527f5f7666687319b40936f33c188908d86aea154abd3f4127b4fa0a3f04f303c7da910160405180910390a260105460008181526016602052604080822054601d549151600080516020614a2683398151915293610e4f9390929183906145f3565b60405180910390a2506001601255565b6013546001600160a01b03163314610e895760405162461bcd60e51b8152600401610ca69061461e565b601d8190556040518181527f6a08b3bba14e54ee218389c7c7444e619f3897465dc06757938cfd01a6957f6c906020015b60405180910390a150565b6000610ed082612ba4565b92915050565b6013546001600160a01b03163314610f005760405162461bcd60e51b8152600401610ca69061461e565b610f0a8282612bc9565b604080516001600160a01b03841681526001600160601b03831660208201527fe5ed39918c4170e24337471011e1ccdeb5e4a433f53fae4eb2ad73e03cd21bda910160405180910390a15050565b606060028054610f6790614655565b80601f0160208091040260200160405190810160405280929190818152602001828054610f9390614655565b8015610fe05780601f10610fb557610100808354040283529160200191610fe0565b820191906000526020600020905b815481529060010190602001808311610fc357829003601f168201915b5050505050905090565b6000818152600460205260408120546001600160a01b03166110635760405162461bcd60e51b815260206004820152602c60248201527f4552433732313a20617070726f76656420717565727920666f72206e6f6e657860448201526b34b9ba32b73a103a37b5b2b760a11b6064820152608401610ca6565b506000908152600660205260409020546001600160a01b031690565b600061108a82611ba5565b9050806001600160a01b0316836001600160a01b0316036110f75760405162461bcd60e51b815260206004820152602160248201527f4552433732313a20617070726f76616c20746f2063757272656e74206f776e656044820152603960f91b6064820152608401610ca6565b336001600160a01b038216148061111357506111138133612794565b6111855760405162461bcd60e51b815260206004820152603860248201527f4552433732313a20617070726f76652063616c6c6572206973206e6f74206f7760448201527f6e6572206e6f7220617070726f76656420666f7220616c6c00000000000000006064820152608401610ca6565b61118f8383612cc6565b505050565b61119f335b82612d34565b6111bb5760405162461bcd60e51b8152600401610ca69061468f565b61118f838383612e0b565b6013546001600160a01b031633146111f05760405162461bcd60e51b8152600401610ca69061461e565b601b8190556040518181527fb1d78271daba9a366098d40b64d642a1399cabaa22c5234bacc87e92cef82ae690602001610eba565b6000828152600f602090815260408083208151808301909252546001600160a01b038116808352600160a01b9091046001600160601b031692820192909252829161129a575060408051808201909152600e546001600160a01b0381168252600160a01b90046001600160601b031660208201525b6020810151600090612710906112b9906001600160601b0316876146e0565b6112c39190614715565b915196919550909350505050565b6000828152602081905260409020600101546112ed8133612fb2565b61118f8383613016565b600061130283611dd4565b82106113645760405162461bcd60e51b815260206004820152602b60248201527f455243373231456e756d657261626c653a206f776e657220696e646578206f7560448201526a74206f6620626f756e647360a81b6064820152608401610ca6565b506001600160a01b03919091166000908152600960209081526040808320938352929052205490565b6001600160a01b03811633146113fd5760405162461bcd60e51b815260206004820152602f60248201527f416363657373436f6e74726f6c3a2063616e206f6e6c792072656e6f756e636560448201526e103937b632b9903337b91039b2b63360891b6064820152608401610ca6565b6114078282613038565b5050565b6114357f65d7a28e3265b37a6474929f336521b332c1681b933f6cb9f3376673440d862a336120ae565b6114a9576040805162461bcd60e51b81526020600482015260248101919091527f4552433732315072657365744d696e7465725061757365724175746f49643a2060448201527f6d75737420686176652070617573657220726f6c6520746f20756e70617573656064820152608401610ca6565b6114b161305a565b565b61118f83838360405180602001604052806000815250612312565b6114d733611199565b61153c5760405162461bcd60e51b815260206004820152603060248201527f4552433732314275726e61626c653a2063616c6c6572206973206e6f74206f7760448201526f1b995c881b9bdc88185c1c1c9bdd995960821b6064820152608401610ca6565b611545816130ed565b50565b6000611553600b5490565b82106115b65760405162461bcd60e51b815260206004820152602c60248201527f455243373231456e756d657261626c653a20676c6f62616c20696e646578206f60448201526b7574206f6620626f756e647360a01b6064820152608401610ca6565b600b82815481106115c9576115c9614729565b90600052602060002001549050919050565b6013546001600160a01b031633146116055760405162461bcd60e51b8152600401610ca69061461e565b61160e81613194565b7f5411e8ebf1636d9e83d5fc4900bf80cbac82e8790da2a4c94db4895e889eedf681604051610eba919061417f565b60026012540361165f5760405162461bcd60e51b8152600401610ca6906144e2565b6002601255806116b15760405162461bcd60e51b815260206004820152601c60248201527f4261736520636861726163746572206e6f74206d6f72706861626c65000000006044820152606401610ca6565b6116ba826131a7565b60006116c58361243b565b9050803410156116e75760405162461bcd60e51b8152600401610ca690614519565b6000838152601660205260408120549060646117036015612918565b61170d919061473f565b905061171a82828661325b565b600086815260166020908152604080832093909355601990529081208054916117428361455b565b90915550506000858152601a60209081526040808320805460ff191660019081179091556016909252918290205491518792600080516020614a26833981519152926117929287929189916145f3565b60405180910390a26013546040516000916001600160a01b03169085908381818185875af1925050503d80600081146117e7576040519150601f19603f3d011682016040523d82523d6000602084013e6117ec565b606091505b505090508061180d5760405162461bcd60e51b8152600401610ca690614574565b5050600160125550505050565b6013546001600160a01b031633146118445760405162461bcd60e51b8152600401610ca69061461e565b8051611857906017906020840190613fe8565b507f4a826ca029d05af64e411551e15f7ee1e70af0b9bc43a31154ace86a863397b481604051610eba919061417f565b6002601254036118a95760405162461bcd60e51b8152600401610ca6906144e2565b600260125560005b81811015611b3c5760008383838181106118cd576118cd614729565b602080546040516331a9108f60e11b81529290910293909301356004820181905293506001600160a01b0390921691636352211e9150602401602060405180830381865afa158015611923573d6000803e3d6000fd5b505050506040513d601f19601f820116820180604052508101906119479190614753565b6001600160a01b0316336001600160a01b03161461196457600080fd5b60205460405163352df34360e11b8152600481018390526000916001600160a01b031690636a5be68690602401602060405180830381865afa1580156119ae573d6000803e3d6000fd5b505050506040513d601f19601f820116820180604052508101906119d29190614770565b602054604051630852cd8d60e31b8152600481018590529192506001600160a01b0316906342966c6890602401600060405180830381600087803b158015611a1957600080fd5b505af1158015611a2d573d6000803e3d6000fd5b50505050600160216000611a3e3390565b6001600160a01b03166001600160a01b031681526020019081526020016000206000828254611a6d9190614789565b90915550506000828152601660205260409020819055611a8d3383612a56565b817f5f7666687319b40936f33c188908d86aea154abd3f4127b4fa0a3f04f303c7da6016600085815260200190815260200160002054604051611ad291815260200190565b60405180910390a2817fb583e10e1b691f0fec5bb6e5bafd39038a17365ca548d3beb76c0822618055836016600085815260200190815260200160002054604051611b1f91815260200190565b60405180910390a250508080611b349061455b565b9150506118b1565b5050600160125550565b6013546001600160a01b03163314611b705760405162461bcd60e51b8152600401610ca69061461e565b601f8190556040518181527fa0e0113404674c6f545b966e8ec54db3066a6c720a0054f0bc4b0c900cfff24390602001610eba565b6000818152600460205260408120546001600160a01b031680610ed05760405162461bcd60e51b815260206004820152602960248201527f4552433732313a206f776e657220717565727920666f72206e6f6e657869737460448201526832b73a103a37b5b2b760b91b6064820152608401610ca6565b600260125403611c3e5760405162461bcd60e51b8152600401610ca6906144e2565b60026012553360009081526018602052604090205460ff16611ca25760405162461bcd60e51b815260206004820152601a60248201527f4e6f742063616c6c65642066726f6d207468652074756e6e656c0000000000006044820152606401610ca6565b60008481526016602081815260408084208054888255601a8452828620805460ff1916891515179055601984529190942085905591905290548590600080516020614a26833981519152908390611cf88461243b565b6001604051611d0a94939291906145f3565b60405180910390a250506001601255505050565b60405162461bcd60e51b815260206004820152601760248201527f53686f756c64206e6f74207573652074686973206f6e650000000000000000006044820152606401610ca6565b6060611d7061336a565b905090565b6013546001600160a01b03163314611d9f5760405162461bcd60e51b8152600401610ca69061461e565b601e8190556040518181527f28a10a2e0b5582da7164754cb994f6214b8af6aa7f7e003305fbc09e7106c51390602001610eba565b60006001600160a01b038216611e3f5760405162461bcd60e51b815260206004820152602a60248201527f4552433732313a2062616c616e636520717565727920666f7220746865207a65604482015269726f206164647265737360b01b6064820152608401610ca6565b506001600160a01b031660009081526005602052604090205490565b6040516331a9108f60e11b8152600481018290526000903090636352211e90602401602060405180830381865afa158015611e9a573d6000803e3d6000fd5b505050506040513d601f19601f82011682018060405250810190611ebe9190614753565b9050336001600160a01b0382161480611ef05750611edb82610fea565b6001600160a01b0316336001600160a01b0316145b80611f005750611f008133612794565b611f7c5760405162461bcd60e51b815260206004820152604160248201527f455243373231436f6e73756d61626c653a206368616e6765436f6e73756d657260448201527f2063616c6c6572206973206e6f74206f776e6572206e6f7220617070726f76656064820152601960fa1b608482015260a401610ca6565b61118f818484613379565b6014546001600160a01b03163314611fe15760405162461bcd60e51b815260206004820181905260248201527f4f776e61626c653a2063616c6c6572206973206e6f7420746865206f776e65726044820152606401610ca6565b6114b160006133d5565b6120157f65d7a28e3265b37a6474929f336521b332c1681b933f6cb9f3376673440d862a336120ae565b6120875760405162461bcd60e51b815260206004820152603e60248201527f4552433732315072657365744d696e7465725061757365724175746f49643a2060448201527f6d75737420686176652070617573657220726f6c6520746f20706175736500006064820152608401610ca6565b6114b1613427565b60008281526001602052604081206120a790836134a2565b9392505050565b6000918252602082815260408084206001600160a01b0393909316845291905290205460ff1690565b606060038054610f6790614655565b6013546001600160a01b031633146121105760405162461bcd60e51b8152600401610ca69061461e565b601c8190556040518181527fff4da8d01e7184cc8c9d6c57d64b336b1de6d676b6215408967bd071c8da7e3d90602001610eba565b6002601254036121675760405162461bcd60e51b8152600401610ca6906144e2565b6002601255612175816131a7565b601c543410156121975760405162461bcd60e51b8152600401610ca690614519565b6000818152601660205260409020546121b06015612918565b60008381526016602052604090208190556121d7906121d060648461473f565b600061325b565b600083815260166020818152604080842094855560198252808420849055601a825292839020805460ff191660019081179091559190529154601c5491518593600080516020614a26833981519152936122359387939092906145f3565b60405180910390a2601354601c546040516000926001600160a01b031691908381818185875af1925050503d806000811461228c576040519150601f19603f3d011682016040523d82523d6000602084013e612291565b606091505b5050905080611b3c5760405162461bcd60e51b8152600401610ca690614574565b6114073383836134ae565b6013546001600160a01b031633146122e75760405162461bcd60e51b8152600401610ca69061461e565b6001600160a01b03919091166000908152601860205260409020805460ff1916911515919091179055565b61231c3383612d34565b6123385760405162461bcd60e51b8152600401610ca69061468f565b6123448484848461357c565b50505050565b6000818152600460205260409020546060906001600160a01b03166123c95760405162461bcd60e51b815260206004820152602f60248201527f4552433732314d657461646174613a2055524920717565727920666f72206e6f60448201526e3732bc34b9ba32b73a103a37b5b2b760891b6064820152608401610ca6565b60006123d361336a565b905060008151116123f357604051806020016040528060008152506120a7565b806123fd846135af565b60405160200161240e9291906147a1565b6040516020818303038152906040529392505050565b6000818152600160205260408120610ed0906136b0565b600081815260196020526040812054601b546120a7906001831b906146e0565b6000828152602081905260409020600101546124778133612fb2565b61118f8383613038565b6002601254036124a35760405162461bcd60e51b8152600401610ca6906144e2565b6002601255601f5481111561250d5760405162461bcd60e51b815260206004820152602a60248201527f43616e6e6f742062756c6b20627579206d6f7265207468616e20746865207072604482015269195cd95d081b1a5b5a5d60b21b6064820152608401610ca6565b601e548160105461251e9190614789565b11156125635760405162461bcd60e51b8152602060048201526014602482015273151bdd185b081cdd5c1c1b1e481c995858da195960621b6044820152606401610ca6565b80601d5461257191906146e0565b3410156125905760405162461bcd60e51b8152600401610ca690614519565b60005b8181101561266b57601080549060006125ab8361455b565b91905055506125ba6015612918565b6010546000908152601660205260409020556125d533610d56565b6010546000818152601660209081526040918290205491519182527f5f7666687319b40936f33c188908d86aea154abd3f4127b4fa0a3f04f303c7da910160405180910390a260105460008181526016602052604080822054601d549151600080516020614a26833981519152936126519390929183906145f3565b60405180910390a2806126638161455b565b915050612593565b50601354601d546000916001600160a01b03169061268a9084906146e0565b604051600081818185875af1925050503d80600081146126c6576040519150601f19603f3d011682016040523d82523d6000602084013e6126cb565b606091505b50509050806126ec5760405162461bcd60e51b8152600401610ca690614574565b50506001601255565b6000818152600460205260408120546001600160a01b03166127785760405162461bcd60e51b815260206004820152603660248201527f455243373231436f6e73756d61626c653a20636f6e73756d6572207175657279604482015275103337b9103737b732bc34b9ba32b73a103a37b5b2b760511b6064820152608401610ca6565b506000908152600860205260409020546001600160a01b031690565b6001600160a01b03918216600090815260076020908152604080832093909416825291909152205460ff1690565b6014546001600160a01b0316331461281c5760405162461bcd60e51b815260206004820181905260248201527f4f776e61626c653a2063616c6c6572206973206e6f7420746865206f776e65726044820152606401610ca6565b6001600160a01b0381166128815760405162461bcd60e51b815260206004820152602660248201527f4f776e61626c653a206e6577206f776e657220697320746865207a65726f206160448201526564647265737360d01b6064820152608401610ca6565b611545816133d5565b6017805461289790614655565b80601f01602080910402602001604051908101604052809291908181526020018280546128c390614655565b80156129105780601f106128e557610100808354040283529160200191612910565b820191906000526020600020905b8154815290600101906020018083116128f357829003601f168201915b505050505081565b600033325a84544243804061292e6064836147d0565b6040516bffffffffffffffffffffffff196060998a1b811660208301529790981b909616603488015260488701949094526068860192909252608885015260a884015260c88301524060e88201526101080160408051601f198184030181528282528051602091820120908301520160408051601f198184030181529190528051602090910120918290555090565b6129c782826120ae565b611407576000828152602081815260408083206001600160a01b03851684529091529020805460ff191660011790556129fd3390565b6001600160a01b0316816001600160a01b0316837f2f8788117e7eff1d82e926ec794901d17c78024a50270940304540a733656f0d60405160405180910390a45050565b60006120a7836001600160a01b0384166136ba565b6001600160a01b038216612aac5760405162461bcd60e51b815260206004820181905260248201527f4552433732313a206d696e7420746f20746865207a65726f20616464726573736044820152606401610ca6565b6000818152600460205260409020546001600160a01b031615612b115760405162461bcd60e51b815260206004820152601c60248201527f4552433732313a20746f6b656e20616c7265616479206d696e746564000000006044820152606401610ca6565b612b1d60008383613709565b6001600160a01b0382166000908152600560205260408120805460019290612b46908490614789565b909155505060008181526004602052604080822080546001600160a01b0319166001600160a01b03861690811790915590518392907fddf252ad1be2c89b69c2b068fc378daa952ba7f163c4a11628f55a4df523b3ef908290a45050565b60006001600160e01b0319821663152a902d60e11b1480610ed05750610ed082613755565b6127106001600160601b0382161115612c375760405162461bcd60e51b815260206004820152602a60248201527f455243323938313a20726f79616c7479206665652077696c6c206578636565646044820152692073616c65507269636560b01b6064820152608401610ca6565b6001600160a01b038216612c8d5760405162461bcd60e51b815260206004820152601960248201527f455243323938313a20696e76616c6964207265636569766572000000000000006044820152606401610ca6565b604080518082019091526001600160a01b039092168083526001600160601b039091166020909201829052600160a01b90910217600e55565b600081815260066020526040902080546001600160a01b0319166001600160a01b0384169081179091558190612cfb82611ba5565b6001600160a01b03167f8c5be1e5ebec7d5bd14f71427d1e84f3dd0314c0f7b2291e5b200ac8c7c3b92560405160405180910390a45050565b6000818152600460205260408120546001600160a01b0316612dad5760405162461bcd60e51b815260206004820152602c60248201527f4552433732313a206f70657261746f7220717565727920666f72206e6f6e657860448201526b34b9ba32b73a103a37b5b2b760a11b6064820152608401610ca6565b6000612db883611ba5565b9050806001600160a01b0316846001600160a01b03161480612df35750836001600160a01b0316612de884610fea565b6001600160a01b0316145b80612e035750612e038185612794565b949350505050565b826001600160a01b0316612e1e82611ba5565b6001600160a01b031614612e825760405162461bcd60e51b815260206004820152602560248201527f4552433732313a207472616e736665722066726f6d20696e636f72726563742060448201526437bbb732b960d91b6064820152608401610ca6565b6001600160a01b038216612ee45760405162461bcd60e51b8152602060048201526024808201527f4552433732313a207472616e7366657220746f20746865207a65726f206164646044820152637265737360e01b6064820152608401610ca6565b612eef838383613709565b612efa600082612cc6565b6001600160a01b0383166000908152600560205260408120805460019290612f239084906147d0565b90915550506001600160a01b0382166000908152600560205260408120805460019290612f51908490614789565b909155505060008181526004602052604080822080546001600160a01b0319166001600160a01b0386811691821790925591518493918716917fddf252ad1be2c89b69c2b068fc378daa952ba7f163c4a11628f55a4df523b3ef91a4505050565b612fbc82826120ae565b61140757612fd4816001600160a01b0316601461377a565b612fdf83602061377a565b604051602001612ff09291906147e7565b60408051601f198184030181529082905262461bcd60e51b8252610ca69160040161417f565b61302082826129bd565b600082815260016020526040902061118f9082612a41565b6130428282613916565b600082815260016020526040902061118f908261397b565b600d5460ff166130a35760405162461bcd60e51b815260206004820152601460248201527314185d5cd8589b194e881b9bdd081c185d5cd95960621b6044820152606401610ca6565b600d805460ff191690557f5db9ee0a495bf2e6ff9c91a7834c1ba4fdd244a5e8aa4e537bd38aeae4b073aa335b6040516001600160a01b03909116815260200160405180910390a1565b60006130f882611ba5565b905061310681600084613709565b613111600083612cc6565b6001600160a01b038116600090815260056020526040812080546001929061313a9084906147d0565b909155505060008281526004602052604080822080546001600160a01b0319169055518391906001600160a01b038416907fddf252ad1be2c89b69c2b068fc378daa952ba7f163c4a11628f55a4df523b3ef908390a45050565b8051611407906011906020840190613fe8565b333b156131f65760405162461bcd60e51b815260206004820152601b60248201527f43616c6c65722063616e6e6f74206265206120636f6e747261637400000000006044820152606401610ca6565b3332146132515760405162461bcd60e51b8152602060048201526024808201527f4d73672073656e6465722073686f756c64206265206f726967696e616c206361604482015263363632b960e11b6064820152608401610ca6565b6115458133613990565b6000602682106132a15760405162461bcd60e51b81526020600482015260116024820152702130b21033b2b732903837b9b4ba34b7b760791b6044820152606401610ca6565b600082156132cc576132b48360026146e0565b6132bf90600a614940565b6132c9908661473f565b90505b60006132d9846001614789565b6132e49060026146e0565b6132ef90600a614940565b6132fa856001614789565b6133059060026146e0565b61331090600a614940565b61331a9088614715565b61332491906146e0565b905060006133338560026146e0565b61333e90600a614940565b61334890876146e0565b9050826133558284614789565b61335f9190614789565b979650505050505050565b606060118054610f6790614655565b60008181526008602052604080822080546001600160a01b0319166001600160a01b0386811691821790925591518493918716917f42ef856c2602f37ce625d252830bed486c5c8e9a4de8aa36cc3d15f304eb662b91a4505050565b601480546001600160a01b038381166001600160a01b0319831681179093556040519116919082907f8be0079c531659141344cd1fd0a4f28419497f9722a3daafe3b4186f6b6457e090600090a35050565b600d5460ff161561346d5760405162461bcd60e51b815260206004820152601060248201526f14185d5cd8589b194e881c185d5cd95960821b6044820152606401610ca6565b600d805460ff191660011790557f62e78cea01bee320cd4e420270b5ea74000d11b0c9f74754ebdbfc544b05a2586130d03390565b60006120a78383613a2f565b816001600160a01b0316836001600160a01b03160361350f5760405162461bcd60e51b815260206004820152601960248201527f4552433732313a20617070726f766520746f2063616c6c6572000000000000006044820152606401610ca6565b6001600160a01b03838116600081815260076020908152604080832094871680845294825291829020805460ff191686151590811790915591519182527f17307eab39ab6107e8899845ad3d59bd9653f200f220920489ca2b5937696c31910160405180910390a3505050565b613587848484612e0b565b61359384848484613a59565b6123445760405162461bcd60e51b8152600401610ca69061494c565b6060816000036135d65750506040805180820190915260018152600360fc1b602082015290565b8160005b811561360057806135ea8161455b565b91506135f99050600a83614715565b91506135da565b60008167ffffffffffffffff81111561361b5761361b614263565b6040519080825280601f01601f191660200182016040528015613645576020820181803683370190505b5090505b8415612e035761365a6001836147d0565b9150613667600a8661473f565b613672906030614789565b60f81b81838151811061368757613687614729565b60200101906001600160f81b031916908160001a9053506136a9600a86614715565b9450613649565b6000610ed0825490565b600081815260018301602052604081205461370157508154600181810184556000848152602080822090930184905584548482528286019093526040902091909155610ed0565b506000610ed0565b613714838383613b5a565b6000818152601660205260408082205490518392600080516020614a268339815191529261374892909182916002906145f3565b60405180910390a2505050565b60006001600160e01b0319821663780e9d6360e01b1480610ed05750610ed082613b65565b606060006137898360026146e0565b613794906002614789565b67ffffffffffffffff8111156137ac576137ac614263565b6040519080825280601f01601f1916602001820160405280156137d6576020820181803683370190505b509050600360fc1b816000815181106137f1576137f1614729565b60200101906001600160f81b031916908160001a905350600f60fb1b8160018151811061382057613820614729565b60200101906001600160f81b031916908160001a90535060006138448460026146e0565b61384f906001614789565b90505b60018111156138c7576f181899199a1a9b1b9c1cb0b131b232b360811b85600f166010811061388357613883614729565b1a60f81b82828151811061389957613899614729565b60200101906001600160f81b031916908160001a90535060049490941c936138c08161499e565b9050613852565b5083156120a75760405162461bcd60e51b815260206004820181905260248201527f537472696e67733a20686578206c656e67746820696e73756666696369656e746044820152606401610ca6565b61392082826120ae565b15611407576000828152602081815260408083206001600160a01b0385168085529252808320805460ff1916905551339285917ff6391f5c32d9c69d2a47ea670b442974b53935d1edc7fd64eb21e047a839171b9190a45050565b60006120a7836001600160a01b038416613b8a565b806001600160a01b03166139a383611ba5565b6001600160a01b0316146114075760405162461bcd60e51b815260206004820152604760248201527f506f6c796d6f7270685769746847656e654368616e6765723a2063616e6e6f7460448201527f206368616e67652067656e6f6d65206f6620746f6b656e2074686174206973206064820152663737ba1037bbb760c91b608482015260a401610ca6565b6000826000018281548110613a4657613a46614729565b9060005260206000200154905092915050565b60006001600160a01b0384163b15613b4f57604051630a85bd0160e11b81526001600160a01b0385169063150b7a0290613a9d9033908990889088906004016149b5565b6020604051808303816000875af1925050508015613ad8575060408051601f3d908101601f19168201909252613ad5918101906149f2565b60015b613b35573d808015613b06576040519150601f19603f3d011682016040523d82523d6000602084013e613b0b565b606091505b508051600003613b2d5760405162461bcd60e51b8152600401610ca69061494c565b805181602001fd5b6001600160e01b031916630a85bd0160e11b149050612e03565b506001949350505050565b61118f838383613c7d565b60006001600160e01b03198216634a9e46fd60e11b1480610ed05750610ed082613cef565b60008181526001830160205260408120548015613c73576000613bae6001836147d0565b8554909150600090613bc2906001906147d0565b9050818114613c27576000866000018281548110613be257613be2614729565b9060005260206000200154905080876000018481548110613c0557613c05614729565b6000918252602080832090910192909255918252600188019052604090208390555b8554869080613c3857613c38614a0f565b600190038181906000526020600020016000905590558560010160008681526020019081526020016000206000905560019350505050610ed0565b6000915050610ed0565b613c88838383613d2f565b600d5460ff161561118f5760405162461bcd60e51b815260206004820152602b60248201527f4552433732315061757361626c653a20746f6b656e207472616e73666572207760448201526a1a1a5b19481c185d5cd95960aa1b6064820152608401610ca6565b60006001600160e01b031982166380ac58cd60e01b1480613d2057506001600160e01b03198216635b5e139f60e01b145b80610ed05750610ed082613df2565b613d3a838383613e17565b6001600160a01b038316613d9557613d9081600b80546000838152600c60205260408120829055600182018355919091527f0175b7a638427703f0dbe7bb9bbf987a2551717b34e79f33b5b1008d1fa01db90155565b613db8565b816001600160a01b0316836001600160a01b031614613db857613db88382613e23565b6001600160a01b038216613dcf5761118f81613ec0565b826001600160a01b0316826001600160a01b03161461118f5761118f8282613f6f565b60006001600160e01b03198216635a05180f60e01b1480610ed05750610ed082613fb3565b61118f83600083613379565b60006001613e3084611dd4565b613e3a91906147d0565b6000838152600a6020526040902054909150808214613e8d576001600160a01b03841660009081526009602090815260408083208584528252808320548484528184208190558352600a90915290208190555b506000918252600a602090815260408084208490556001600160a01b039094168352600981528383209183525290812055565b600b54600090613ed2906001906147d0565b6000838152600c6020526040812054600b8054939450909284908110613efa57613efa614729565b9060005260206000200154905080600b8381548110613f1b57613f1b614729565b6000918252602080832090910192909255828152600c9091526040808220849055858252812055600b805480613f5357613f53614a0f565b6001900381819060005260206000200160009055905550505050565b6000613f7a83611dd4565b6001600160a01b0390931660009081526009602090815260408083208684528252808320859055938252600a9052919091209190915550565b60006001600160e01b03198216637965db0b60e01b1480610ed057506301ffc9a760e01b6001600160e01b0319831614610ed0565b828054613ff490614655565b90600052602060002090601f016020900481019282614016576000855561405c565b82601f1061402f57805160ff191683800117855561405c565b8280016001018555821561405c579182015b8281111561405c578251825591602001919060010190614041565b5061406892915061406c565b5090565b5b80821115614068576000815560010161406d565b60006020828403121561409357600080fd5b5035919050565b6001600160e01b03198116811461154557600080fd5b6000602082840312156140c257600080fd5b81356120a78161409a565b6001600160a01b038116811461154557600080fd5b600080604083850312156140f557600080fd5b8235614100816140cd565b915060208301356001600160601b038116811461411c57600080fd5b809150509250929050565b60005b8381101561414257818101518382015260200161412a565b838111156123445750506000910152565b6000815180845261416b816020860160208601614127565b601f01601f19169290920160200192915050565b6020815260006120a76020830184614153565b600080604083850312156141a557600080fd5b82356141b0816140cd565b946020939093013593505050565b6000602082840312156141d057600080fd5b81356120a7816140cd565b6000806000606084860312156141f057600080fd5b83356141fb816140cd565b9250602084013561420b816140cd565b929592945050506040919091013590565b6000806040838503121561422f57600080fd5b50508035926020909101359150565b6000806040838503121561425157600080fd5b82359150602083013561411c816140cd565b634e487b7160e01b600052604160045260246000fd5b600067ffffffffffffffff8084111561429457614294614263565b604051601f8501601f19908116603f011681019082821181831017156142bc576142bc614263565b816040528093508581528686860111156142d557600080fd5b858560208301376000602087830101525050509392505050565b60006020828403121561430157600080fd5b813567ffffffffffffffff81111561431857600080fd5b8201601f8101841361432957600080fd5b612e0384823560208401614279565b6000806020838503121561434b57600080fd5b823567ffffffffffffffff8082111561436357600080fd5b818501915085601f83011261437757600080fd5b81358181111561438657600080fd5b8660208260051b850101111561439b57600080fd5b60209290920196919550909350505050565b803580151581146143bd57600080fd5b919050565b600080600080608085870312156143d857600080fd5b84359350602085013592506143ef604086016143ad565b9396929550929360600135925050565b6000806040838503121561441257600080fd5b823561441d816140cd565b915061442b602084016143ad565b90509250929050565b6000806000806080858703121561444a57600080fd5b8435614455816140cd565b93506020850135614465816140cd565b925060408501359150606085013567ffffffffffffffff81111561448857600080fd5b8501601f8101871361449957600080fd5b6144a887823560208401614279565b91505092959194509250565b600080604083850312156144c757600080fd5b82356144d2816140cd565b9150602083013561411c816140cd565b6020808252601f908201527f5265656e7472616e637947756172643a207265656e7472616e742063616c6c00604082015260600190565b602080825260129082015271496e73756666696369656e742066756e647360701b604082015260600190565b634e487b7160e01b600052601160045260246000fd5b60006001820161456d5761456d614545565b5060010190565b6020808252603a908201527f416464726573733a20756e61626c6520746f2073656e642076616c75652c207260408201527f6563697069656e74206d61792068617665207265766572746564000000000000606082015260800190565b600381106145ef57634e487b7160e01b600052602160045260246000fd5b9052565b84815260208101849052604081018390526080810161461560608301846145d1565b95945050505050565b60208082526017908201527f4e6f742063616c6c65642066726f6d207468652064616f000000000000000000604082015260600190565b600181811c9082168061466957607f821691505b60208210810361468957634e487b7160e01b600052602260045260246000fd5b50919050565b60208082526031908201527f4552433732313a207472616e736665722063616c6c6572206973206e6f74206f6040820152701ddb995c881b9bdc88185c1c1c9bdd9959607a1b606082015260800190565b60008160001904831182151516156146fa576146fa614545565b500290565b634e487b7160e01b600052601260045260246000fd5b600082614724576147246146ff565b500490565b634e487b7160e01b600052603260045260246000fd5b60008261474e5761474e6146ff565b500690565b60006020828403121561476557600080fd5b81516120a7816140cd565b60006020828403121561478257600080fd5b5051919050565b6000821982111561479c5761479c614545565b500190565b600083516147b3818460208801614127565b8351908301906147c7818360208801614127565b01949350505050565b6000828210156147e2576147e2614545565b500390565b7f416363657373436f6e74726f6c3a206163636f756e742000000000000000000081526000835161481f816017850160208801614127565b7001034b99036b4b9b9b4b733903937b6329607d1b6017918401918201528351614850816028840160208801614127565b01602801949350505050565b600181815b8085111561489757816000190482111561487d5761487d614545565b8085161561488a57918102915b93841c9390800290614861565b509250929050565b6000826148ae57506001610ed0565b816148bb57506000610ed0565b81600181146148d157600281146148db576148f7565b6001915050610ed0565b60ff8411156148ec576148ec614545565b50506001821b610ed0565b5060208310610133831016604e8410600b841016171561491a575081810a610ed0565b614924838361485c565b806000190482111561493857614938614545565b029392505050565b60006120a7838361489f565b60208082526032908201527f4552433732313a207472616e7366657220746f206e6f6e20455243373231526560408201527131b2b4bb32b91034b6b83632b6b2b73a32b960711b606082015260800190565b6000816149ad576149ad614545565b506000190190565b6001600160a01b03858116825284166020820152604081018390526080606082018190526000906149e890830184614153565b9695505050505050565b600060208284031215614a0457600080fd5b81516120a78161409a565b634e487b7160e01b600052603160045260246000fdfe8c0bdd7bca83c4e0c810cbecf44bc544a9dc0b9f265664e31ce0ce85f07a052ba26469706673582212208f36531da5297069983afe70ad0c17291ed600c7ad30d8644b94186e4f5c58c364736f6c634300080e0033",
    "linkReferences": {},
    "deployedLinkReferences": {}
}