{
    "_format": "hh-sol-artifact-1",
    "contractName": "PolymorphicFacesRoot",
    "sourceName": "contracts/mainnet/PolymorphicFacesRoot.sol",
    "abi": [
        {
            "inputs": [
                {
                    "components": [
                        {
                            "internalType": "string",
                            "name": "name",
                            "type": "string"
                        },
                        {
                            "internalType": "string",
                            "name": "symbol",
                            "type": "string"
                        },
                        {
                            "internalType": "string",
                            "name": "baseURI",
                            "type": "string"
                        },
                        {
                            "internalType": "address payable",
                            "name": "_daoAddress",
                            "type": "address"
                        },
                        {
                            "internalType": "uint96",
                            "name": "_royaltyFee",
                            "type": "uint96"
                        },
                        {
                            "internalType": "uint256",
                            "name": "_baseGenomeChangePrice",
                            "type": "uint256"
                        },
                        {
                            "internalType": "uint256",
                            "name": "_maxSupply",
                            "type": "uint256"
                        },
                        {
                            "internalType": "uint256",
                            "name": "_randomizeGenomePrice",
                            "type": "uint256"
                        },
                        {
                            "internalType": "string",
                            "name": "_arweaveAssetsJSON",
                            "type": "string"
                        },
                        {
                            "internalType": "address",
                            "name": "_polymorphV2Address",
                            "type": "address"
                        }
                    ],
                    "internalType": "struct PolymorphicFacesRoot.Params",
                    "name": "params",
                    "type": "tuple"
                }
            ],
            "stateMutability": "nonpayable",
            "type": "constructor"
        },
        {
            "anonymous": false,
            "inputs": [
                {
                    "indexed": true,
                    "internalType": "address",
                    "name": "owner",
                    "type": "address"
                },
                {
                    "indexed": true,
                    "internalType": "address",
                    "name": "approved",
                    "type": "address"
                },
                {
                    "indexed": true,
                    "internalType": "uint256",
                    "name": "tokenId",
                    "type": "uint256"
                }
            ],
            "name": "Approval",
            "type": "event"
        },
        {
            "anonymous": false,
            "inputs": [
                {
                    "indexed": true,
                    "internalType": "address",
                    "name": "owner",
                    "type": "address"
                },
                {
                    "indexed": true,
                    "internalType": "address",
                    "name": "operator",
                    "type": "address"
                },
                {
                    "indexed": false,
                    "internalType": "bool",
                    "name": "approved",
                    "type": "bool"
                }
            ],
            "name": "ApprovalForAll",
            "type": "event"
        },
        {
            "anonymous": false,
            "inputs": [
                {
                    "indexed": false,
                    "internalType": "string",
                    "name": "arweaveAssetsJSON",
                    "type": "string"
                }
            ],
            "name": "ArweaveAssetsJSONChanged",
            "type": "event"
        },
        {
            "anonymous": false,
            "inputs": [
                {
                    "indexed": false,
                    "internalType": "uint256",
                    "name": "newGenomeChange",
                    "type": "uint256"
                }
            ],
            "name": "BaseGenomeChangePriceChanged",
            "type": "event"
        },
        {
            "anonymous": false,
            "inputs": [
                {
                    "indexed": false,
                    "internalType": "string",
                    "name": "baseURI",
                    "type": "string"
                }
            ],
            "name": "BaseURIChanged",
            "type": "event"
        },
        {
            "anonymous": false,
            "inputs": [
                {
                    "indexed": true,
                    "internalType": "address",
                    "name": "owner",
                    "type": "address"
                },
                {
                    "indexed": true,
                    "internalType": "address",
                    "name": "consumer",
                    "type": "address"
                },
                {
                    "indexed": true,
                    "internalType": "uint256",
                    "name": "tokenId",
                    "type": "uint256"
                }
            ],
            "name": "ConsumerChanged",
            "type": "event"
        },
        {
            "anonymous": false,
            "inputs": [
                {
                    "indexed": false,
                    "internalType": "address",
                    "name": "newReceiver",
                    "type": "address"
                },
                {
                    "indexed": false,
                    "internalType": "uint96",
                    "name": "newDefaultRoyalty",
                    "type": "uint96"
                }
            ],
            "name": "DefaultRoyaltyChanged",
            "type": "event"
        },
        {
            "anonymous": false,
            "inputs": [
                {
                    "indexed": false,
                    "internalType": "uint256",
                    "name": "newMaxSupply",
                    "type": "uint256"
                }
            ],
            "name": "MaxSupplyChanged",
            "type": "event"
        },
        {
            "anonymous": false,
            "inputs": [
                {
                    "indexed": true,
                    "internalType": "address",
                    "name": "previousOwner",
                    "type": "address"
                },
                {
                    "indexed": true,
                    "internalType": "address",
                    "name": "newOwner",
                    "type": "address"
                }
            ],
            "name": "OwnershipTransferred",
            "type": "event"
        },
        {
            "anonymous": false,
            "inputs": [
                {
                    "indexed": false,
                    "internalType": "address",
                    "name": "account",
                    "type": "address"
                }
            ],
            "name": "Paused",
            "type": "event"
        },
        {
            "anonymous": false,
            "inputs": [
                {
                    "indexed": false,
                    "internalType": "address",
                    "name": "newPolyV2Address",
                    "type": "address"
                }
            ],
            "name": "PolyV2AddressChanged",
            "type": "event"
        },
        {
            "anonymous": false,
            "inputs": [
                {
                    "indexed": false,
                    "internalType": "uint256",
                    "name": "newRandomizeGenomePriceChange",
                    "type": "uint256"
                }
            ],
            "name": "RandomizeGenomePriceChanged",
            "type": "event"
        },
        {
            "anonymous": false,
            "inputs": [
                {
                    "indexed": true,
                    "internalType": "bytes32",
                    "name": "role",
                    "type": "bytes32"
                },
                {
                    "indexed": true,
                    "internalType": "bytes32",
                    "name": "previousAdminRole",
                    "type": "bytes32"
                },
                {
                    "indexed": true,
                    "internalType": "bytes32",
                    "name": "newAdminRole",
                    "type": "bytes32"
                }
            ],
            "name": "RoleAdminChanged",
            "type": "event"
        },
        {
            "anonymous": false,
            "inputs": [
                {
                    "indexed": true,
                    "internalType": "bytes32",
                    "name": "role",
                    "type": "bytes32"
                },
                {
                    "indexed": true,
                    "internalType": "address",
                    "name": "account",
                    "type": "address"
                },
                {
                    "indexed": true,
                    "internalType": "address",
                    "name": "sender",
                    "type": "address"
                }
            ],
            "name": "RoleGranted",
            "type": "event"
        },
        {
            "anonymous": false,
            "inputs": [
                {
                    "indexed": true,
                    "internalType": "bytes32",
                    "name": "role",
                    "type": "bytes32"
                },
                {
                    "indexed": true,
                    "internalType": "address",
                    "name": "account",
                    "type": "address"
                },
                {
                    "indexed": true,
                    "internalType": "address",
                    "name": "sender",
                    "type": "address"
                }
            ],
            "name": "RoleRevoked",
            "type": "event"
        },
        {
            "anonymous": false,
            "inputs": [
                {
                    "indexed": true,
                    "internalType": "uint256",
                    "name": "tokenId",
                    "type": "uint256"
                },
                {
                    "indexed": false,
                    "internalType": "uint256",
                    "name": "newGene",
                    "type": "uint256"
                }
            ],
            "name": "TokenMinted",
            "type": "event"
        },
        {
            "anonymous": false,
            "inputs": [
                {
                    "indexed": true,
                    "internalType": "uint256",
                    "name": "tokenId",
                    "type": "uint256"
                },
                {
                    "indexed": false,
                    "internalType": "uint256",
                    "name": "oldGene",
                    "type": "uint256"
                },
                {
                    "indexed": false,
                    "internalType": "uint256",
                    "name": "newGene",
                    "type": "uint256"
                },
                {
                    "indexed": false,
                    "internalType": "uint256",
                    "name": "price",
                    "type": "uint256"
                },
                {
                    "indexed": false,
                    "internalType": "enum PolymorphicFaces.FacesEventType",
                    "name": "eventType",
                    "type": "uint8"
                }
            ],
            "name": "TokenMorphed",
            "type": "event"
        },
        {
            "anonymous": false,
            "inputs": [
                {
                    "indexed": true,
                    "internalType": "address",
                    "name": "from",
                    "type": "address"
                },
                {
                    "indexed": true,
                    "internalType": "address",
                    "name": "to",
                    "type": "address"
                },
                {
                    "indexed": true,
                    "internalType": "uint256",
                    "name": "tokenId",
                    "type": "uint256"
                }
            ],
            "name": "Transfer",
            "type": "event"
        },
        {
            "anonymous": false,
            "inputs": [
                {
                    "indexed": false,
                    "internalType": "address",
                    "name": "account",
                    "type": "address"
                }
            ],
            "name": "Unpaused",
            "type": "event"
        },
        {
            "inputs": [],
            "name": "DEFAULT_ADMIN_ROLE",
            "outputs": [
                {
                    "internalType": "bytes32",
                    "name": "",
                    "type": "bytes32"
                }
            ],
            "stateMutability": "view",
            "type": "function"
        },
        {
            "inputs": [],
            "name": "MINTER_ROLE",
            "outputs": [
                {
                    "internalType": "bytes32",
                    "name": "",
                    "type": "bytes32"
                }
            ],
            "stateMutability": "view",
            "type": "function"
        },
        {
            "inputs": [],
            "name": "PAUSER_ROLE",
            "outputs": [
                {
                    "internalType": "bytes32",
                    "name": "",
                    "type": "bytes32"
                }
            ],
            "stateMutability": "view",
            "type": "function"
        },
        {
            "inputs": [
                {
                    "internalType": "address",
                    "name": "to",
                    "type": "address"
                },
                {
                    "internalType": "uint256",
                    "name": "tokenId",
                    "type": "uint256"
                }
            ],
            "name": "approve",
            "outputs": [],
            "stateMutability": "nonpayable",
            "type": "function"
        },
        {
            "inputs": [],
            "name": "arweaveAssetsJSON",
            "outputs": [
                {
                    "internalType": "string",
                    "name": "",
                    "type": "string"
                }
            ],
            "stateMutability": "view",
            "type": "function"
        },
        {
            "inputs": [
                {
                    "internalType": "address",
                    "name": "owner",
                    "type": "address"
                }
            ],
            "name": "balanceOf",
            "outputs": [
                {
                    "internalType": "uint256",
                    "name": "",
                    "type": "uint256"
                }
            ],
            "stateMutability": "view",
            "type": "function"
        },
        {
            "inputs": [],
            "name": "baseGenomeChangePrice",
            "outputs": [
                {
                    "internalType": "uint256",
                    "name": "",
                    "type": "uint256"
                }
            ],
            "stateMutability": "view",
            "type": "function"
        },
        {
            "inputs": [],
            "name": "baseURI",
            "outputs": [
                {
                    "internalType": "string",
                    "name": "",
                    "type": "string"
                }
            ],
            "stateMutability": "view",
            "type": "function"
        },
        {
            "inputs": [
                {
                    "internalType": "uint256",
                    "name": "tokenId",
                    "type": "uint256"
                }
            ],
            "name": "burn",
            "outputs": [],
            "stateMutability": "nonpayable",
            "type": "function"
        },
        {
            "inputs": [
                {
                    "internalType": "uint256",
                    "name": "newGenomeChangePrice",
                    "type": "uint256"
                }
            ],
            "name": "changeBaseGenomeChangePrice",
            "outputs": [],
            "stateMutability": "nonpayable",
            "type": "function"
        },
        {
            "inputs": [
                {
                    "internalType": "address",
                    "name": "_consumer",
                    "type": "address"
                },
                {
                    "internalType": "uint256",
                    "name": "_tokenId",
                    "type": "uint256"
                }
            ],
            "name": "changeConsumer",
            "outputs": [],
            "stateMutability": "nonpayable",
            "type": "function"
        },
        {
            "inputs": [
                {
                    "internalType": "uint256",
                    "name": "newRandomizeGenomePrice",
                    "type": "uint256"
                }
            ],
            "name": "changeRandomizeGenomePrice",
            "outputs": [],
            "stateMutability": "nonpayable",
            "type": "function"
        },
        {
            "inputs": [
                {
                    "internalType": "uint256",
                    "name": "amount",
                    "type": "uint256"
                }
            ],
            "name": "claim",
            "outputs": [],
            "stateMutability": "nonpayable",
            "type": "function"
        },
        {
            "inputs": [
                {
                    "internalType": "uint256",
                    "name": "_tokenId",
                    "type": "uint256"
                }
            ],
            "name": "consumerOf",
            "outputs": [
                {
                    "internalType": "address",
                    "name": "",
                    "type": "address"
                }
            ],
            "stateMutability": "view",
            "type": "function"
        },
        {
            "inputs": [],
            "name": "daoAddress",
            "outputs": [
                {
                    "internalType": "address payable",
                    "name": "",
                    "type": "address"
                }
            ],
            "stateMutability": "view",
            "type": "function"
        },
        {
            "inputs": [
                {
                    "internalType": "uint256",
                    "name": "_amount",
                    "type": "uint256"
                }
            ],
            "name": "daoMint",
            "outputs": [],
            "stateMutability": "nonpayable",
            "type": "function"
        },
        {
            "inputs": [
                {
                    "internalType": "uint256",
                    "name": "tokenId",
                    "type": "uint256"
                }
            ],
            "name": "geneOf",
            "outputs": [
                {
                    "internalType": "uint256",
                    "name": "gene",
                    "type": "uint256"
                }
            ],
            "stateMutability": "view",
            "type": "function"
        },
        {
            "inputs": [
                {
                    "internalType": "uint256",
                    "name": "tokenId",
                    "type": "uint256"
                }
            ],
            "name": "genomeChanges",
            "outputs": [
                {
                    "internalType": "uint256",
                    "name": "genomeChnages",
                    "type": "uint256"
                }
            ],
            "stateMutability": "view",
            "type": "function"
        },
        {
            "inputs": [
                {
                    "internalType": "uint256",
                    "name": "tokenId",
                    "type": "uint256"
                }
            ],
            "name": "getApproved",
            "outputs": [
                {
                    "internalType": "address",
                    "name": "",
                    "type": "address"
                }
            ],
            "stateMutability": "view",
            "type": "function"
        },
        {
            "inputs": [
                {
                    "internalType": "bytes32",
                    "name": "role",
                    "type": "bytes32"
                }
            ],
            "name": "getRoleAdmin",
            "outputs": [
                {
                    "internalType": "bytes32",
                    "name": "",
                    "type": "bytes32"
                }
            ],
            "stateMutability": "view",
            "type": "function"
        },
        {
            "inputs": [
                {
                    "internalType": "bytes32",
                    "name": "role",
                    "type": "bytes32"
                },
                {
                    "internalType": "uint256",
                    "name": "index",
                    "type": "uint256"
                }
            ],
            "name": "getRoleMember",
            "outputs": [
                {
                    "internalType": "address",
                    "name": "",
                    "type": "address"
                }
            ],
            "stateMutability": "view",
            "type": "function"
        },
        {
            "inputs": [
                {
                    "internalType": "bytes32",
                    "name": "role",
                    "type": "bytes32"
                }
            ],
            "name": "getRoleMemberCount",
            "outputs": [
                {
                    "internalType": "uint256",
                    "name": "",
                    "type": "uint256"
                }
            ],
            "stateMutability": "view",
            "type": "function"
        },
        {
            "inputs": [
                {
                    "internalType": "bytes32",
                    "name": "role",
                    "type": "bytes32"
                },
                {
                    "internalType": "address",
                    "name": "account",
                    "type": "address"
                }
            ],
            "name": "grantRole",
            "outputs": [],
            "stateMutability": "nonpayable",
            "type": "function"
        },
        {
            "inputs": [
                {
                    "internalType": "bytes32",
                    "name": "role",
                    "type": "bytes32"
                },
                {
                    "internalType": "address",
                    "name": "account",
                    "type": "address"
                }
            ],
            "name": "hasRole",
            "outputs": [
                {
                    "internalType": "bool",
                    "name": "",
                    "type": "bool"
                }
            ],
            "stateMutability": "view",
            "type": "function"
        },
        {
            "inputs": [
                {
                    "internalType": "address",
                    "name": "owner",
                    "type": "address"
                },
                {
                    "internalType": "address",
                    "name": "operator",
                    "type": "address"
                }
            ],
            "name": "isApprovedForAll",
            "outputs": [
                {
                    "internalType": "bool",
                    "name": "",
                    "type": "bool"
                }
            ],
            "stateMutability": "view",
            "type": "function"
        },
        {
            "inputs": [
                {
                    "internalType": "uint256",
                    "name": "",
                    "type": "uint256"
                }
            ],
            "name": "isNotVirgin",
            "outputs": [
                {
                    "internalType": "bool",
                    "name": "",
                    "type": "bool"
                }
            ],
            "stateMutability": "view",
            "type": "function"
        },
        {
            "inputs": [],
            "name": "lastTokenId",
            "outputs": [
                {
                    "internalType": "uint256",
                    "name": "tokenId",
                    "type": "uint256"
                }
            ],
            "stateMutability": "view",
            "type": "function"
        },
        {
            "inputs": [],
            "name": "maxSupply",
            "outputs": [
                {
                    "internalType": "uint256",
                    "name": "",
                    "type": "uint256"
                }
            ],
            "stateMutability": "view",
            "type": "function"
        },
        {
            "inputs": [
                {
                    "internalType": "address",
                    "name": "to",
                    "type": "address"
                }
            ],
            "name": "mint",
            "outputs": [],
            "stateMutability": "nonpayable",
            "type": "function"
        },
        {
            "inputs": [
                {
                    "internalType": "uint256",
                    "name": "tokenId",
                    "type": "uint256"
                },
                {
                    "internalType": "uint256",
                    "name": "genePosition",
                    "type": "uint256"
                }
            ],
            "name": "morphGene",
            "outputs": [],
            "stateMutability": "payable",
            "type": "function"
        },
        {
            "inputs": [],
            "name": "name",
            "outputs": [
                {
                    "internalType": "string",
                    "name": "",
                    "type": "string"
                }
            ],
            "stateMutability": "view",
            "type": "function"
        },
        {
            "inputs": [
                {
                    "internalType": "address",
                    "name": "",
                    "type": "address"
                }
            ],
            "name": "numClaimed",
            "outputs": [
                {
                    "internalType": "uint256",
                    "name": "",
                    "type": "uint256"
                }
            ],
            "stateMutability": "view",
            "type": "function"
        },
        {
            "inputs": [],
            "name": "owner",
            "outputs": [
                {
                    "internalType": "address",
                    "name": "",
                    "type": "address"
                }
            ],
            "stateMutability": "view",
            "type": "function"
        },
        {
            "inputs": [
                {
                    "internalType": "uint256",
                    "name": "tokenId",
                    "type": "uint256"
                }
            ],
            "name": "ownerOf",
            "outputs": [
                {
                    "internalType": "address",
                    "name": "",
                    "type": "address"
                }
            ],
            "stateMutability": "view",
            "type": "function"
        },
        {
            "inputs": [],
            "name": "pause",
            "outputs": [],
            "stateMutability": "nonpayable",
            "type": "function"
        },
        {
            "inputs": [],
            "name": "paused",
            "outputs": [
                {
                    "internalType": "bool",
                    "name": "",
                    "type": "bool"
                }
            ],
            "stateMutability": "view",
            "type": "function"
        },
        {
            "inputs": [],
            "name": "polymorphV2Contract",
            "outputs": [
                {
                    "internalType": "contract PolymorphRoot",
                    "name": "",
                    "type": "address"
                }
            ],
            "stateMutability": "view",
            "type": "function"
        },
        {
            "inputs": [
                {
                    "internalType": "uint256",
                    "name": "tokenId",
                    "type": "uint256"
                }
            ],
            "name": "priceForGenomeChange",
            "outputs": [
                {
                    "internalType": "uint256",
                    "name": "price",
                    "type": "uint256"
                }
            ],
            "stateMutability": "view",
            "type": "function"
        },
        {
            "inputs": [
                {
                    "internalType": "uint256",
                    "name": "tokenId",
                    "type": "uint256"
                }
            ],
            "name": "randomizeGenome",
            "outputs": [],
            "stateMutability": "payable",
            "type": "function"
        },
        {
            "inputs": [],
            "name": "randomizeGenomePrice",
            "outputs": [
                {
                    "internalType": "uint256",
                    "name": "",
                    "type": "uint256"
                }
            ],
            "stateMutability": "view",
            "type": "function"
        },
        {
            "inputs": [],
            "name": "renounceOwnership",
            "outputs": [],
            "stateMutability": "nonpayable",
            "type": "function"
        },
        {
            "inputs": [
                {
                    "internalType": "bytes32",
                    "name": "role",
                    "type": "bytes32"
                },
                {
                    "internalType": "address",
                    "name": "account",
                    "type": "address"
                }
            ],
            "name": "renounceRole",
            "outputs": [],
            "stateMutability": "nonpayable",
            "type": "function"
        },
        {
            "inputs": [
                {
                    "internalType": "bytes32",
                    "name": "role",
                    "type": "bytes32"
                },
                {
                    "internalType": "address",
                    "name": "account",
                    "type": "address"
                }
            ],
            "name": "revokeRole",
            "outputs": [],
            "stateMutability": "nonpayable",
            "type": "function"
        },
        {
            "inputs": [
                {
                    "internalType": "uint256",
                    "name": "_tokenId",
                    "type": "uint256"
                },
                {
                    "internalType": "uint256",
                    "name": "_salePrice",
                    "type": "uint256"
                }
            ],
            "name": "royaltyInfo",
            "outputs": [
                {
                    "internalType": "address",
                    "name": "",
                    "type": "address"
                },
                {
                    "internalType": "uint256",
                    "name": "",
                    "type": "uint256"
                }
            ],
            "stateMutability": "view",
            "type": "function"
        },
        {
            "inputs": [
                {
                    "internalType": "address",
                    "name": "from",
                    "type": "address"
                },
                {
                    "internalType": "address",
                    "name": "to",
                    "type": "address"
                },
                {
                    "internalType": "uint256",
                    "name": "tokenId",
                    "type": "uint256"
                }
            ],
            "name": "safeTransferFrom",
            "outputs": [],
            "stateMutability": "nonpayable",
            "type": "function"
        },
        {
            "inputs": [
                {
                    "internalType": "address",
                    "name": "from",
                    "type": "address"
                },
                {
                    "internalType": "address",
                    "name": "to",
                    "type": "address"
                },
                {
                    "internalType": "uint256",
                    "name": "tokenId",
                    "type": "uint256"
                },
                {
                    "internalType": "bytes",
                    "name": "data",
                    "type": "bytes"
                }
            ],
            "name": "safeTransferFrom",
            "outputs": [],
            "stateMutability": "nonpayable",
            "type": "function"
        },
        {
            "inputs": [
                {
                    "internalType": "address",
                    "name": "operator",
                    "type": "address"
                },
                {
                    "internalType": "bool",
                    "name": "approved",
                    "type": "bool"
                }
            ],
            "name": "setApprovalForAll",
            "outputs": [],
            "stateMutability": "nonpayable",
            "type": "function"
        },
        {
            "inputs": [
                {
                    "internalType": "string",
                    "name": "_arweaveAssetsJSON",
                    "type": "string"
                }
            ],
            "name": "setArweaveAssetsJSON",
            "outputs": [],
            "stateMutability": "nonpayable",
            "type": "function"
        },
        {
            "inputs": [
                {
                    "internalType": "string",
                    "name": "_baseURI",
                    "type": "string"
                }
            ],
            "name": "setBaseURI",
            "outputs": [],
            "stateMutability": "nonpayable",
            "type": "function"
        },
        {
            "inputs": [
                {
                    "internalType": "address",
                    "name": "receiver",
                    "type": "address"
                },
                {
                    "internalType": "uint96",
                    "name": "royaltyFee",
                    "type": "uint96"
                }
            ],
            "name": "setDefaultRoyalty",
            "outputs": [],
            "stateMutability": "nonpayable",
            "type": "function"
        },
        {
            "inputs": [
                {
                    "internalType": "uint256",
                    "name": "_maxSupply",
                    "type": "uint256"
                }
            ],
            "name": "setMaxSupply",
            "outputs": [],
            "stateMutability": "nonpayable",
            "type": "function"
        },
        {
            "inputs": [
                {
                    "internalType": "address payable",
                    "name": "newPolyV2Address",
                    "type": "address"
                }
            ],
            "name": "setPolyV2Address",
            "outputs": [],
            "stateMutability": "nonpayable",
            "type": "function"
        },
        {
            "inputs": [
                {
                    "internalType": "bytes4",
                    "name": "interfaceId",
                    "type": "bytes4"
                }
            ],
            "name": "supportsInterface",
            "outputs": [
                {
                    "internalType": "bool",
                    "name": "",
                    "type": "bool"
                }
            ],
            "stateMutability": "view",
            "type": "function"
        },
        {
            "inputs": [],
            "name": "symbol",
            "outputs": [
                {
                    "internalType": "string",
                    "name": "",
                    "type": "string"
                }
            ],
            "stateMutability": "view",
            "type": "function"
        },
        {
            "inputs": [
                {
                    "internalType": "uint256",
                    "name": "index",
                    "type": "uint256"
                }
            ],
            "name": "tokenByIndex",
            "outputs": [
                {
                    "internalType": "uint256",
                    "name": "",
                    "type": "uint256"
                }
            ],
            "stateMutability": "view",
            "type": "function"
        },
        {
            "inputs": [
                {
                    "internalType": "address",
                    "name": "owner",
                    "type": "address"
                },
                {
                    "internalType": "uint256",
                    "name": "index",
                    "type": "uint256"
                }
            ],
            "name": "tokenOfOwnerByIndex",
            "outputs": [
                {
                    "internalType": "uint256",
                    "name": "",
                    "type": "uint256"
                }
            ],
            "stateMutability": "view",
            "type": "function"
        },
        {
            "inputs": [
                {
                    "internalType": "uint256",
                    "name": "tokenId",
                    "type": "uint256"
                }
            ],
            "name": "tokenURI",
            "outputs": [
                {
                    "internalType": "string",
                    "name": "",
                    "type": "string"
                }
            ],
            "stateMutability": "view",
            "type": "function"
        },
        {
            "inputs": [],
            "name": "totalSupply",
            "outputs": [
                {
                    "internalType": "uint256",
                    "name": "",
                    "type": "uint256"
                }
            ],
            "stateMutability": "view",
            "type": "function"
        },
        {
            "inputs": [
                {
                    "internalType": "address",
                    "name": "from",
                    "type": "address"
                },
                {
                    "internalType": "address",
                    "name": "to",
                    "type": "address"
                },
                {
                    "internalType": "uint256",
                    "name": "tokenId",
                    "type": "uint256"
                }
            ],
            "name": "transferFrom",
            "outputs": [],
            "stateMutability": "nonpayable",
            "type": "function"
        },
        {
            "inputs": [
                {
                    "internalType": "address",
                    "name": "newOwner",
                    "type": "address"
                }
            ],
            "name": "transferOwnership",
            "outputs": [],
            "stateMutability": "nonpayable",
            "type": "function"
        },
        {
            "inputs": [],
            "name": "unpause",
            "outputs": [],
            "stateMutability": "nonpayable",
            "type": "function"
        },
        {
            "inputs": [
                {
                    "internalType": "address",
                    "name": "bridgeAddress",
                    "type": "address"
                },
                {
                    "internalType": "bool",
                    "name": "status",
                    "type": "bool"
                }
            ],
            "name": "whitelistBridgeAddress",
            "outputs": [],
            "stateMutability": "nonpayable",
            "type": "function"
        },
        {
            "inputs": [
                {
                    "internalType": "address",
                    "name": "",
                    "type": "address"
                }
            ],
            "name": "whitelistTunnelAddresses",
            "outputs": [
                {
                    "internalType": "bool",
                    "name": "",
                    "type": "bool"
                }
            ],
            "stateMutability": "view",
            "type": "function"
        },
        {
            "inputs": [
                {
                    "internalType": "uint256",
                    "name": "tokenId",
                    "type": "uint256"
                },
                {
                    "internalType": "uint256",
                    "name": "gene",
                    "type": "uint256"
                },
                {
                    "internalType": "bool",
                    "name": "isVirgin",
                    "type": "bool"
                },
                {
                    "internalType": "uint256",
                    "name": "genomeChangesCount",
                    "type": "uint256"
                }
            ],
            "name": "wormholeUpdateGene",
            "outputs": [],
            "stateMutability": "nonpayable",
            "type": "function"
        }
    ],
    "bytecode": "0x60806040523480156200001157600080fd5b5060405162004ead38038062004ead833981016040819052620000349162000749565b80600001518160200151826040015183606001518460a001518560e00151866101000151868686868481858585828281600290805190602001906200007b92919062000564565b5080516200009190600390602084019062000564565b5050600d805460ff19169055508051620000b390601190602084019062000564565b50620000c160003362000206565b620000ed7f9f2df0fed2c77648de5860a4cc508cd0818c85b8b8a1ab4ceeef8d981c8956a63362000206565b620001197f65d7a28e3265b37a6474929f336521b332c1681b933f6cb9f3376673440d862a3362000206565b5050600160125550601380546001600160a01b0319166001600160a01b0392909216919091179055620001536200014d3390565b62000216565b80516200016890601790602084019062000564565b505050601b95909555505050601c5550505060c0830151601d5550506101008101518051620001a09160179160209091019062000564565b50806101200151601e60006101000a8154816001600160a01b0302191690836001600160a01b03160217905550620001e460156200026860201b620024901760201c565b50620001ff816060015182608001516200030a60201b60201c565b50620008f3565b6200021282826200040f565b5050565b601480546001600160a01b038381166001600160a01b0319831681179093556040519116919082907f8be0079c531659141344cd1fd0a4f28419497f9722a3daafe3b4186f6b6457e090600090a35050565b600033325a8454424380406200028060648362000891565b6040516001600160601b03196060998a1b811660208301529790981b909616603488015260488701949094526068860192909252608885015260a884015260c88301524060e88201526101080160408051601f198184030181528282528051602091820120908301520160408051601f198184030181529190528051602090910120918290555090565b6127106001600160601b03821611156200037e5760405162461bcd60e51b815260206004820152602a60248201527f455243323938313a20726f79616c7479206665652077696c6c206578636565646044820152692073616c65507269636560b01b60648201526084015b60405180910390fd5b6001600160a01b038216620003d65760405162461bcd60e51b815260206004820152601960248201527f455243323938313a20696e76616c696420726563656976657200000000000000604482015260640162000375565b604080518082019091526001600160a01b039092168083526001600160601b039091166020909201829052600160a01b90910217600e55565b6200042682826200045260201b620025351760201c565b60008281526001602090815260409091206200044d918390620025b9620004f2821b17901c565b505050565b6000828152602081815260408083206001600160a01b038516845290915290205460ff1662000212576000828152602081815260408083206001600160a01b03851684529091529020805460ff19166001179055620004ae3390565b6001600160a01b0316816001600160a01b0316837f2f8788117e7eff1d82e926ec794901d17c78024a50270940304540a733656f0d60405160405180910390a45050565b600062000509836001600160a01b03841662000512565b90505b92915050565b60008181526001830160205260408120546200055b575081546001818101845560008481526020808220909301849055845484825282860190935260409020919091556200050c565b5060006200050c565b8280546200057290620008b7565b90600052602060002090601f016020900481019282620005965760008555620005e1565b82601f10620005b157805160ff1916838001178555620005e1565b82800160010185558215620005e1579182015b82811115620005e1578251825591602001919060010190620005c4565b50620005ef929150620005f3565b5090565b5b80821115620005ef5760008155600101620005f4565b634e487b7160e01b600052604160045260246000fd5b60405161014081016001600160401b03811182821017156200064657620006466200060a565b60405290565b604051601f8201601f191681016001600160401b03811182821017156200067757620006776200060a565b604052919050565b600082601f8301126200069157600080fd5b81516001600160401b03811115620006ad57620006ad6200060a565b6020620006c3601f8301601f191682016200064c565b8281528582848701011115620006d857600080fd5b60005b83811015620006f8578581018301518282018401528201620006db565b838111156200070a5760008385840101525b5095945050505050565b80516001600160a01b03811681146200072c57600080fd5b919050565b80516001600160601b03811681146200072c57600080fd5b6000602082840312156200075c57600080fd5b81516001600160401b03808211156200077457600080fd5b9083019061014082860312156200078a57600080fd5b6200079462000620565b825182811115620007a457600080fd5b620007b2878286016200067f565b825250602083015182811115620007c857600080fd5b620007d6878286016200067f565b602083015250604083015182811115620007ef57600080fd5b620007fd878286016200067f565b604083015250620008116060840162000714565b6060820152620008246080840162000731565b608082015260a083015160a082015260c083015160c082015260e083015160e082015261010080840151838111156200085c57600080fd5b6200086a888287016200067f565b82840152505061012091506200088282840162000714565b91810191909152949350505050565b600082821015620008b257634e487b7160e01b600052601160045260246000fd5b500390565b600181811c90821680620008cc57607f821691505b602082108103620008ed57634e487b7160e01b600052602260045260246000fd5b50919050565b6145aa80620009036000396000f3fe6080604052600436106103c35760003560e01c80636a627842116101f2578063b88d4fde1161010d578063d5abeb01116100a0578063ec9c074c1161006f578063ec9c074c14610ba0578063f2fde38b14610bb6578063f528a62714610bd6578063f84ddf0b14610beb57600080fd5b8063d5abeb0114610b16578063e589233114610b2c578063e63ab1e914610b4c578063e985e9c514610b8057600080fd5b8063ce14617d116100dc578063ce14617d14610a8c578063d45351e514610aa2578063d539139314610ac2578063d547741f14610af657600080fd5b8063b88d4fde146109fc578063c87b56dd14610a1c578063ca15c87314610a3c578063cccb6d0d14610a5c57600080fd5b80639010d07c116101855780639e7bb467116101545780639e7bb46714610994578063a217fddf146109a7578063a22cb465146109bc578063ab39a3c8146109dc57600080fd5b80639010d07c1461091f57806391d148541461093f57806395d89b411461095f57806398c5c0781461097457600080fd5b806370b5aecb116101c157806370b5aecb146108b7578063715018a6146108d75780638456cb59146108ec5780638da5cb5b1461090157600080fd5b80636a627842146108425780636c0360eb146108625780636f8b44b01461087757806370a082311461089757600080fd5b80632f745c59116102e257806355f804b31161027557806362759f6c1161024457806362759f6c146107b55780636352211e146107d55780636a1c03dc146107f55780636a5be6861461081557600080fd5b806355f804b31461074a57806356a5c9261461076a57806356b1b3001461077d5780635c975abb1461079d57600080fd5b806342842e0e116102b157806342842e0e146106ba57806342966c68146106da5780634df77416146106fa5780634f6ccce71461072a57600080fd5b80632f745c591461064557806336568abe14610665578063379607f5146106855780633f4ba83a146106a557600080fd5b80632131c68c1161035a578063274ea5f111610329578063274ea5f1146105a6578063289ea0a9146105c65780632a55205a146105e65780632f2ff15d1461062557600080fd5b80632131c68c1461050957806323b872dd1461052957806323c8d07a14610549578063248a9ca31461057657600080fd5b8063074cba6b11610396578063074cba6b14610479578063081812fc146104b4578063095ea7b3146104d457806318160ddd146104f457600080fd5b8063016fa7d6146103c857806301ffc9a71461040557806304634d8d1461043557806306fdde0314610457575b600080fd5b3480156103d457600080fd5b50601e546103e8906001600160a01b031681565b6040516001600160a01b0390911681526020015b60405180910390f35b34801561041157600080fd5b50610425610420366004613c6a565b610c00565b60405190151581526020016103fc565b34801561044157600080fd5b50610455610450366004613c9c565b610c11565b005b34801561046357600080fd5b5061046c610c9c565b6040516103fc9190613d39565b34801561048557600080fd5b506104a6610494366004613d4c565b601f6020526000908152604090205481565b6040519081526020016103fc565b3480156104c057600080fd5b506103e86104cf366004613d69565b610d2e565b3480156104e057600080fd5b506104556104ef366004613d82565b610d55565b34801561050057600080fd5b50600b546104a6565b34801561051557600080fd5b506013546103e8906001600160a01b031681565b34801561053557600080fd5b50610455610544366004613dae565b610e6a565b34801561055557600080fd5b506104a6610564366004613d69565b60009081526019602052604090205490565b34801561058257600080fd5b506104a6610591366004613d69565b60009081526020819052604090206001015490565b3480156105b257600080fd5b506104556105c1366004613d4c565b610e9c565b3480156105d257600080fd5b506104556105e1366004613d69565b610f1b565b3480156105f257600080fd5b50610606610601366004613def565b610f7a565b604080516001600160a01b0390931683526020830191909152016103fc565b34801561063157600080fd5b50610455610640366004613e11565b611026565b34801561065157600080fd5b506104a6610660366004613d82565b61104b565b34801561067157600080fd5b50610455610680366004613e11565b6110e1565b34801561069157600080fd5b506104556106a0366004613d69565b61115f565b3480156106b157600080fd5b50610455611420565b3480156106c657600080fd5b506104556106d5366004613dae565b6114c8565b3480156106e657600080fd5b506104556106f5366004613d69565b6114e3565b34801561070657600080fd5b50610425610715366004613d69565b601a6020526000908152604090205460ff1681565b34801561073657600080fd5b506104a6610745366004613d69565b611514565b34801561075657600080fd5b50610455610765366004613ec2565b6115a7565b610455610778366004613def565b611609565b34801561078957600080fd5b50610455610798366004613ec2565b611826565b3480156107a957600080fd5b50600d5460ff16610425565b3480156107c157600080fd5b506104556107d0366004613d69565b611893565b3480156107e157600080fd5b506103e86107f0366004613d69565b611a53565b34801561080157600080fd5b50610455610810366004613f20565b611ab3565b34801561082157600080fd5b506104a6610830366004613d69565b60009081526016602052604090205490565b34801561084e57600080fd5b5061045561085d366004613d4c565b611bb5565b34801561086e57600080fd5b5061046c611bfd565b34801561088357600080fd5b50610455610892366004613d69565b611c0c565b3480156108a357600080fd5b506104a66108b2366004613d4c565b611c6b565b3480156108c357600080fd5b506104556108d2366004613d82565b611cf1565b3480156108e357600080fd5b50610455611e1d565b3480156108f857600080fd5b50610455611e2f565b34801561090d57600080fd5b506014546001600160a01b03166103e8565b34801561092b57600080fd5b506103e861093a366004613def565b611ed3565b34801561094b57600080fd5b5061042561095a366004613e11565b611ef2565b34801561096b57600080fd5b5061046c611f1b565b34801561098057600080fd5b5061045561098f366004613d69565b611f2a565b6104556109a2366004613d69565b611f89565b3480156109b357600080fd5b506104a6600081565b3480156109c857600080fd5b506104556109d7366004613f5d565b612165565b3480156109e857600080fd5b506104556109f7366004613f5d565b612170565b348015610a0857600080fd5b50610455610a17366004613f92565b6121c5565b348015610a2857600080fd5b5061046c610a37366004613d69565b6121fd565b348015610a4857600080fd5b506104a6610a57366004613d69565b612263565b348015610a6857600080fd5b50610425610a77366004613d4c565b60186020526000908152604090205460ff1681565b348015610a9857600080fd5b506104a6601b5481565b348015610aae57600080fd5b506104a6610abd366004613d69565b61227a565b348015610ace57600080fd5b506104a67f9f2df0fed2c77648de5860a4cc508cd0818c85b8b8a1ab4ceeef8d981c8956a681565b348015610b0257600080fd5b50610455610b11366004613e11565b61229a565b348015610b2257600080fd5b506104a6601d5481565b348015610b3857600080fd5b506103e8610b47366004613d69565b6122bf565b348015610b5857600080fd5b506104a67f65d7a28e3265b37a6474929f336521b332c1681b933f6cb9f3376673440d862a81565b348015610b8c57600080fd5b50610425610b9b366004614012565b61235e565b348015610bac57600080fd5b506104a6601c5481565b348015610bc257600080fd5b50610455610bd1366004613d4c565b61238c565b348015610be257600080fd5b5061046c612402565b348015610bf757600080fd5b506010546104a6565b6000610c0b826125ce565b92915050565b6013546001600160a01b03163314610c445760405162461bcd60e51b8152600401610c3b90614040565b60405180910390fd5b610c4e82826125d9565b604080516001600160a01b03841681526001600160601b03831660208201527fe5ed39918c4170e24337471011e1ccdeb5e4a433f53fae4eb2ad73e03cd21bda910160405180910390a15050565b606060028054610cab90614077565b80601f0160208091040260200160405190810160405280929190818152602001828054610cd790614077565b8015610d245780601f10610cf957610100808354040283529160200191610d24565b820191906000526020600020905b815481529060010190602001808311610d0757829003601f168201915b5050505050905090565b6000610d39826126d6565b506000908152600660205260409020546001600160a01b031690565b6000610d6082611a53565b9050806001600160a01b0316836001600160a01b031603610dcd5760405162461bcd60e51b815260206004820152602160248201527f4552433732313a20617070726f76616c20746f2063757272656e74206f776e656044820152603960f91b6064820152608401610c3b565b336001600160a01b0382161480610de95750610de9813361235e565b610e5b5760405162461bcd60e51b815260206004820152603e60248201527f4552433732313a20617070726f76652063616c6c6572206973206e6f7420746f60448201527f6b656e206f776e6572206e6f7220617070726f76656420666f7220616c6c00006064820152608401610c3b565b610e658383612735565b505050565b610e75335b826127a3565b610e915760405162461bcd60e51b8152600401610c3b906140b1565b610e65838383612802565b6013546001600160a01b03163314610ec65760405162461bcd60e51b8152600401610c3b90614040565b601e80546001600160a01b0319166001600160a01b0383169081179091556040519081527f5ec2919217d5d2381c3a8e75d708902dfe1bc0a6e3b2829ea35289a0cea7877e906020015b60405180910390a150565b6013546001600160a01b03163314610f455760405162461bcd60e51b8152600401610c3b90614040565b601b8190556040518181527fb1d78271daba9a366098d40b64d642a1399cabaa22c5234bacc87e92cef82ae690602001610f10565b6000828152600f602090815260408083208151808301909252546001600160a01b038116808352600160a01b9091046001600160601b0316928201929092528291610fef575060408051808201909152600e546001600160a01b0381168252600160a01b90046001600160601b031660208201525b60208101516000906127109061100e906001600160601b031687614115565b611018919061414a565b915196919550909350505050565b600082815260208190526040902060010154611041816129a9565b610e6583836129b3565b600061105683611c6b565b82106110b85760405162461bcd60e51b815260206004820152602b60248201527f455243373231456e756d657261626c653a206f776e657220696e646578206f7560448201526a74206f6620626f756e647360a81b6064820152608401610c3b565b506001600160a01b03919091166000908152600960209081526040808320938352929052205490565b6001600160a01b03811633146111515760405162461bcd60e51b815260206004820152602f60248201527f416363657373436f6e74726f6c3a2063616e206f6e6c792072656e6f756e636560448201526e103937b632b9903337b91039b2b63360891b6064820152608401610c3b565b61115b82826129d5565b5050565b6002601254036111815760405162461bcd60e51b8152600401610c3b9061415e565b600260125560148111156111e85760405162461bcd60e51b815260206004820152602860248201527f43616e277420636c61696d206d6f7265207468616e20323020666163657320696044820152670dc40dedcca40e8f60c31b6064820152608401610c3b565b601d54816010546111f99190614195565b111561123e5760405162461bcd60e51b8152602060048201526014602482015273151bdd185b081cdd5c1c1b1e481c995858da195960621b6044820152606401610c3b565b60005b8181101561141757336000818152601f60205260409081902054601e5491516315889e4360e01b81526004810193909352916001600160a01b03909116906315889e4390602401602060405180830381865afa1580156112a5573d6000803e3d6000fd5b505050506040513d601f19601f820116820180604052508101906112c991906141ad565b116113255760405162461bcd60e51b815260206004820152602660248201527f5573657220616c726561647920636c61696d656420616c6c20616c6c6f77656460448201526520666163657360d01b6064820152608401610c3b565b336000908152601f60205260408120805491611340836141c6565b909155505060108054906000611355836141c6565b91905055506113646015612490565b601054600090815260166020526040902055611383335b6010546129f7565b6010546000818152601660209081526040918290205491519182527f5f7666687319b40936f33c188908d86aea154abd3f4127b4fa0a3f04f303c7da910160405180910390a2601054600081815260166020526040808220549051600080516020614555833981519152926113fd92909182908190614201565b60405180910390a28061140f816141c6565b915050611241565b50506001601255565b61144a7f65d7a28e3265b37a6474929f336521b332c1681b933f6cb9f3376673440d862a33611ef2565b6114be576040805162461bcd60e51b81526020600482015260248101919091527f4552433732315072657365744d696e7465725061757365724175746f49643a2060448201527f6d75737420686176652070617573657220726f6c6520746f20756e70617573656064820152608401610c3b565b6114c6612b45565b565b610e65838383604051806020016040528060008152506121c5565b6114ec33610e6f565b6115085760405162461bcd60e51b8152600401610c3b906140b1565b61151181612b97565b50565b600061151f600b5490565b82106115825760405162461bcd60e51b815260206004820152602c60248201527f455243373231456e756d657261626c653a20676c6f62616c20696e646578206f60448201526b7574206f6620626f756e647360a01b6064820152608401610c3b565b600b82815481106115955761159561422c565b90600052602060002001549050919050565b6013546001600160a01b031633146115d15760405162461bcd60e51b8152600401610c3b90614040565b6115da81612c3e565b7f5411e8ebf1636d9e83d5fc4900bf80cbac82e8790da2a4c94db4895e889eedf681604051610f109190613d39565b60026012540361162b5760405162461bcd60e51b8152600401610c3b9061415e565b600260125561163982612c51565b60006116448361227a565b6013546040519192506000916001600160a01b039091169083908381818185875af1925050503d8060008114611696576040519150601f19603f3d011682016040523d82523d6000602084013e61169b565b606091505b50509050806116bc5760405162461bcd60e51b8152600401610c3b90614242565b60006116c8833461429f565b9050801561176557604051600090339083908381818185875af1925050503d8060008114611712576040519150601f19603f3d011682016040523d82523d6000602084013e611717565b606091505b50509050806117635760405162461bcd60e51b81526020600482015260186024820152772330b4b632b2103a37903932ba3ab9371032bc31b2b9b99760411b6044820152606401610c3b565b505b6000858152601660205260408120549060646117816015612490565b61178b91906142b6565b9050611798828288612d05565b600088815260166020908152604080832093909355601990529081208054916117c0836141c6565b90915550506000878152601a60209081526040808320805460ff19166001908117909155601690925291829020549151899260008051602061455583398151915292611810928792918b91614201565b60405180910390a2505060016012555050505050565b6013546001600160a01b031633146118505760405162461bcd60e51b8152600401610c3b90614040565b8051611863906017906020840190613bbb565b507f4a826ca029d05af64e411551e15f7ee1e70af0b9bc43a31154ace86a863397b481604051610f109190613d39565b6013546001600160a01b031633146118bd5760405162461bcd60e51b8152600401610c3b90614040565b60198111156119245760405162461bcd60e51b815260206004820152602d60248201527f44414f2063616e206d696e74206174206d6f737420323520666163657320706560448201526c39103a3930b739b0b1ba34b7b760991b6064820152608401610c3b565b601d54816010546119359190614195565b111561197a5760405162461bcd60e51b8152602060048201526014602482015273151bdd185b081cdd5c1c1b1e481c995858da195960621b6044820152606401610c3b565b60005b8181101561115b5760108054906000611995836141c6565b91905055506119a46015612490565b6010546000908152601660205260409020556119bf3361137b565b6010546000818152601660209081526040918290205491519182527f5f7666687319b40936f33c188908d86aea154abd3f4127b4fa0a3f04f303c7da910160405180910390a260105460008181526016602052604080822054905160008051602061455583398151915292611a3992909182908190614201565b60405180910390a280611a4b816141c6565b91505061197d565b6000818152600460205260408120546001600160a01b031680610c0b5760405162461bcd60e51b8152602060048201526018602482015277115490cdcc8c4e881a5b9d985b1a59081d1bdad95b88125160421b6044820152606401610c3b565b600260125403611ad55760405162461bcd60e51b8152600401610c3b9061415e565b60026012553360009081526018602052604090205460ff16611b395760405162461bcd60e51b815260206004820152601a60248201527f4e6f742063616c6c65642066726f6d207468652074756e6e656c0000000000006044820152606401610c3b565b60008481526016602081815260408084208054888255601a8452828620805460ff1916891515179055601984529190942085905591905290548590600080516020614555833981519152908390611b8f8461227a565b6001604051611ba19493929190614201565b60405180910390a250506001601255505050565b60405162461bcd60e51b815260206004820152601760248201527f53686f756c64206e6f74207573652074686973206f6e650000000000000000006044820152606401610c3b565b6060611c07612e0d565b905090565b6013546001600160a01b03163314611c365760405162461bcd60e51b8152600401610c3b90614040565b601d8190556040518181527f28a10a2e0b5582da7164754cb994f6214b8af6aa7f7e003305fbc09e7106c51390602001610f10565b60006001600160a01b038216611cd55760405162461bcd60e51b815260206004820152602960248201527f4552433732313a2061646472657373207a65726f206973206e6f7420612076616044820152683634b21037bbb732b960b91b6064820152608401610c3b565b506001600160a01b031660009081526005602052604090205490565b6040516331a9108f60e11b8152600481018290526000903090636352211e90602401602060405180830381865afa158015611d30573d6000803e3d6000fd5b505050506040513d601f19601f82011682018060405250810190611d5491906142ca565b9050336001600160a01b0382161480611d865750611d7182610d2e565b6001600160a01b0316336001600160a01b0316145b80611d965750611d96813361235e565b611e125760405162461bcd60e51b815260206004820152604160248201527f455243373231436f6e73756d61626c653a206368616e6765436f6e73756d657260448201527f2063616c6c6572206973206e6f74206f776e6572206e6f7220617070726f76656064820152601960fa1b608482015260a401610c3b565b610e65818484612e1c565b611e25612e78565b6114c66000612ed2565b611e597f65d7a28e3265b37a6474929f336521b332c1681b933f6cb9f3376673440d862a33611ef2565b611ecb5760405162461bcd60e51b815260206004820152603e60248201527f4552433732315072657365744d696e7465725061757365724175746f49643a2060448201527f6d75737420686176652070617573657220726f6c6520746f20706175736500006064820152608401610c3b565b6114c6612f24565b6000828152600160205260408120611eeb9083612f61565b9392505050565b6000918252602082815260408084206001600160a01b0393909316845291905290205460ff1690565b606060038054610cab90614077565b6013546001600160a01b03163314611f545760405162461bcd60e51b8152600401610c3b90614040565b601c8190556040518181527fff4da8d01e7184cc8c9d6c57d64b336b1de6d676b6215408967bd071c8da7e3d90602001610f10565b600260125403611fab5760405162461bcd60e51b8152600401610c3b9061415e565b6002601255611fb981612c51565b601354601c546040516000926001600160a01b031691908381818185875af1925050503d8060008114612008576040519150601f19603f3d011682016040523d82523d6000602084013e61200d565b606091505b505090508061202e5760405162461bcd60e51b8152600401610c3b90614242565b6000601c543461203e919061429f565b905080156120db57604051600090339083908381818185875af1925050503d8060008114612088576040519150601f19603f3d011682016040523d82523d6000602084013e61208d565b606091505b50509050806120d95760405162461bcd60e51b81526020600482015260186024820152772330b4b632b2103a37903932ba3ab9371032bc31b2b9b99760411b6044820152606401610c3b565b505b6000838152601660205260409020546120f46015612490565b600085815260166020818152604080842094855560198252808420849055601a825292839020805460ff191660019081179091559190529154601c549151879360008051602061455583398151915293612152938793909290614201565b60405180910390a2505060016012555050565b61115b338383612f6d565b6013546001600160a01b0316331461219a5760405162461bcd60e51b8152600401610c3b90614040565b6001600160a01b03919091166000908152601860205260409020805460ff1916911515919091179055565b6121cf33836127a3565b6121eb5760405162461bcd60e51b8152600401610c3b906140b1565b6121f78484848461303b565b50505050565b6060612208826126d6565b6000612212612e0d565b905060008151116122325760405180602001604052806000815250611eeb565b8061223c8461306e565b60405160200161224d9291906142e7565b6040516020818303038152906040529392505050565b6000818152600160205260408120610c0b9061316f565b600081815260196020526040812054601b54611eeb906001831b90614115565b6000828152602081905260409020600101546122b5816129a9565b610e6583836129d5565b6000818152600460205260408120546001600160a01b03166123425760405162461bcd60e51b815260206004820152603660248201527f455243373231436f6e73756d61626c653a20636f6e73756d6572207175657279604482015275103337b9103737b732bc34b9ba32b73a103a37b5b2b760511b6064820152608401610c3b565b506000908152600860205260409020546001600160a01b031690565b6001600160a01b03918216600090815260076020908152604080832093909416825291909152205460ff1690565b612394612e78565b6001600160a01b0381166123f95760405162461bcd60e51b815260206004820152602660248201527f4f776e61626c653a206e6577206f776e657220697320746865207a65726f206160448201526564647265737360d01b6064820152608401610c3b565b61151181612ed2565b6017805461240f90614077565b80601f016020809104026020016040519081016040528092919081815260200182805461243b90614077565b80156124885780601f1061245d57610100808354040283529160200191612488565b820191906000526020600020905b81548152906001019060200180831161246b57829003601f168201915b505050505081565b600033325a8454424380406124a660648361429f565b6040516bffffffffffffffffffffffff196060998a1b811660208301529790981b909616603488015260488701949094526068860192909252608885015260a884015260c88301524060e88201526101080160408051601f198184030181528282528051602091820120908301520160408051601f198184030181529190528051602090910120918290555090565b61253f8282611ef2565b61115b576000828152602081815260408083206001600160a01b03851684529091529020805460ff191660011790556125753390565b6001600160a01b0316816001600160a01b0316837f2f8788117e7eff1d82e926ec794901d17c78024a50270940304540a733656f0d60405160405180910390a45050565b6000611eeb836001600160a01b038416613179565b6000610c0b826131c8565b6127106001600160601b03821611156126475760405162461bcd60e51b815260206004820152602a60248201527f455243323938313a20726f79616c7479206665652077696c6c206578636565646044820152692073616c65507269636560b01b6064820152608401610c3b565b6001600160a01b03821661269d5760405162461bcd60e51b815260206004820152601960248201527f455243323938313a20696e76616c6964207265636569766572000000000000006044820152606401610c3b565b604080518082019091526001600160a01b039092168083526001600160601b039091166020909201829052600160a01b90910217600e55565b6000818152600460205260409020546001600160a01b03166115115760405162461bcd60e51b8152602060048201526018602482015277115490cdcc8c4e881a5b9d985b1a59081d1bdad95b88125160421b6044820152606401610c3b565b600081815260066020526040902080546001600160a01b0319166001600160a01b038416908117909155819061276a82611a53565b6001600160a01b03167f8c5be1e5ebec7d5bd14f71427d1e84f3dd0314c0f7b2291e5b200ac8c7c3b92560405160405180910390a45050565b6000806127af83611a53565b9050806001600160a01b0316846001600160a01b031614806127d657506127d6818561235e565b806127fa5750836001600160a01b03166127ef84610d2e565b6001600160a01b0316145b949350505050565b826001600160a01b031661281582611a53565b6001600160a01b0316146128795760405162461bcd60e51b815260206004820152602560248201527f4552433732313a207472616e736665722066726f6d20696e636f72726563742060448201526437bbb732b960d91b6064820152608401610c3b565b6001600160a01b0382166128db5760405162461bcd60e51b8152602060048201526024808201527f4552433732313a207472616e7366657220746f20746865207a65726f206164646044820152637265737360e01b6064820152608401610c3b565b6128e68383836131ed565b6128f1600082612735565b6001600160a01b038316600090815260056020526040812080546001929061291a90849061429f565b90915550506001600160a01b0382166000908152600560205260408120805460019290612948908490614195565b909155505060008181526004602052604080822080546001600160a01b0319166001600160a01b0386811691821790925591518493918716917fddf252ad1be2c89b69c2b068fc378daa952ba7f163c4a11628f55a4df523b3ef91a4505050565b6115118133613239565b6129bd8282612535565b6000828152600160205260409020610e6590826125b9565b6129df828261329d565b6000828152600160205260409020610e659082613302565b6001600160a01b038216612a4d5760405162461bcd60e51b815260206004820181905260248201527f4552433732313a206d696e7420746f20746865207a65726f20616464726573736044820152606401610c3b565b6000818152600460205260409020546001600160a01b031615612ab25760405162461bcd60e51b815260206004820152601c60248201527f4552433732313a20746f6b656e20616c7265616479206d696e746564000000006044820152606401610c3b565b612abe600083836131ed565b6001600160a01b0382166000908152600560205260408120805460019290612ae7908490614195565b909155505060008181526004602052604080822080546001600160a01b0319166001600160a01b03861690811790915590518392907fddf252ad1be2c89b69c2b068fc378daa952ba7f163c4a11628f55a4df523b3ef908290a45050565b612b4d613317565b600d805460ff191690557f5db9ee0a495bf2e6ff9c91a7834c1ba4fdd244a5e8aa4e537bd38aeae4b073aa335b6040516001600160a01b03909116815260200160405180910390a1565b6000612ba282611a53565b9050612bb0816000846131ed565b612bbb600083612735565b6001600160a01b0381166000908152600560205260408120805460019290612be490849061429f565b909155505060008281526004602052604080822080546001600160a01b0319169055518391906001600160a01b038416907fddf252ad1be2c89b69c2b068fc378daa952ba7f163c4a11628f55a4df523b3ef908390a45050565b805161115b906011906020840190613bbb565b333b15612ca05760405162461bcd60e51b815260206004820152601b60248201527f43616c6c65722063616e6e6f74206265206120636f6e747261637400000000006044820152606401610c3b565b333214612cfb5760405162461bcd60e51b8152602060048201526024808201527f4d73672073656e6465722073686f756c64206265206f726967696e616c206361604482015263363632b960e11b6064820152608401610c3b565b6115118133613360565b600060268210612d4b5760405162461bcd60e51b81526020600482015260116024820152702130b21033b2b732903837b9b4ba34b7b760791b6044820152606401610c3b565b6000612d58836002614115565b612d6390600a6143fa565b612d6d90866142b6565b90506000612d7c846001614195565b612d87906002614115565b612d9290600a6143fa565b612d9d856001614195565b612da8906002614115565b612db390600a6143fa565b612dbd908861414a565b612dc79190614115565b90506000612dd6856002614115565b612de190600a6143fa565b612deb9087614115565b905082612df88284614195565b612e029190614195565b979650505050505050565b606060118054610cab90614077565b60008181526008602052604080822080546001600160a01b0319166001600160a01b0386811691821790925591518493918716917f42ef856c2602f37ce625d252830bed486c5c8e9a4de8aa36cc3d15f304eb662b91a4505050565b6014546001600160a01b031633146114c65760405162461bcd60e51b815260206004820181905260248201527f4f776e61626c653a2063616c6c6572206973206e6f7420746865206f776e65726044820152606401610c3b565b601480546001600160a01b038381166001600160a01b0319831681179093556040519116919082907f8be0079c531659141344cd1fd0a4f28419497f9722a3daafe3b4186f6b6457e090600090a35050565b612f2c6133fb565b600d805460ff191660011790557f62e78cea01bee320cd4e420270b5ea74000d11b0c9f74754ebdbfc544b05a258612b7a3390565b6000611eeb8383613441565b816001600160a01b0316836001600160a01b031603612fce5760405162461bcd60e51b815260206004820152601960248201527f4552433732313a20617070726f766520746f2063616c6c6572000000000000006044820152606401610c3b565b6001600160a01b03838116600081815260076020908152604080832094871680845294825291829020805460ff191686151590811790915591519182527f17307eab39ab6107e8899845ad3d59bd9653f200f220920489ca2b5937696c31910160405180910390a3505050565b613046848484612802565b6130528484848461346b565b6121f75760405162461bcd60e51b8152600401610c3b90614406565b6060816000036130955750506040805180820190915260018152600360fc1b602082015290565b8160005b81156130bf57806130a9816141c6565b91506130b89050600a8361414a565b9150613099565b60008167ffffffffffffffff8111156130da576130da613e36565b6040519080825280601f01601f191660200182016040528015613104576020820181803683370190505b5090505b84156127fa5761311960018361429f565b9150613126600a866142b6565b613131906030614195565b60f81b8183815181106131465761314661422c565b60200101906001600160f81b031916908160001a905350613168600a8661414a565b9450613108565b6000610c0b825490565b60008181526001830160205260408120546131c057508154600181810184556000848152602080822090930184905584548482528286019093526040902091909155610c0b565b506000610c0b565b60006001600160e01b0319821663152a902d60e11b1480610c0b5750610c0b8261356c565b6131f8838383613591565b60008181526016602052604080822054905183926000805160206145558339815191529261322c9290918291600290614201565b60405180910390a2505050565b6132438282611ef2565b61115b5761325b816001600160a01b0316601461359c565b61326683602061359c565b604051602001613277929190614458565b60408051601f198184030181529082905262461bcd60e51b8252610c3b91600401613d39565b6132a78282611ef2565b1561115b576000828152602081815260408083206001600160a01b0385168085529252808320805460ff1916905551339285917ff6391f5c32d9c69d2a47ea670b442974b53935d1edc7fd64eb21e047a839171b9190a45050565b6000611eeb836001600160a01b038416613738565b600d5460ff166114c65760405162461bcd60e51b815260206004820152601460248201527314185d5cd8589b194e881b9bdd081c185d5cd95960621b6044820152606401610c3b565b806001600160a01b031661337383611a53565b6001600160a01b03161461115b5760405162461bcd60e51b815260206004820152604360248201527f46616365735769746847656e654368616e6765723a2063616e6e6f742063686160448201527f6e67652067656e6f6d65206f6620746f6b656e2074686174206973206e6f742060648201526237bbb760e91b608482015260a401610c3b565b600d5460ff16156114c65760405162461bcd60e51b815260206004820152601060248201526f14185d5cd8589b194e881c185d5cd95960821b6044820152606401610c3b565b60008260000182815481106134585761345861422c565b9060005260206000200154905092915050565b60006001600160a01b0384163b1561356157604051630a85bd0160e11b81526001600160a01b0385169063150b7a02906134af9033908990889088906004016144cd565b6020604051808303816000875af19250505080156134ea575060408051601f3d908101601f191682019092526134e79181019061450a565b60015b613547573d808015613518576040519150601f19603f3d011682016040523d82523d6000602084013e61351d565b606091505b50805160000361353f5760405162461bcd60e51b8152600401610c3b90614406565b805181602001fd5b6001600160e01b031916630a85bd0160e11b1490506127fa565b506001949350505050565b60006001600160e01b0319821663780e9d6360e01b1480610c0b5750610c0b8261382b565b610e65838383613850565b606060006135ab836002614115565b6135b6906002614195565b67ffffffffffffffff8111156135ce576135ce613e36565b6040519080825280601f01601f1916602001820160405280156135f8576020820181803683370190505b509050600360fc1b816000815181106136135761361361422c565b60200101906001600160f81b031916908160001a905350600f60fb1b816001815181106136425761364261422c565b60200101906001600160f81b031916908160001a9053506000613666846002614115565b613671906001614195565b90505b60018111156136e9576f181899199a1a9b1b9c1cb0b131b232b360811b85600f16601081106136a5576136a561422c565b1a60f81b8282815181106136bb576136bb61422c565b60200101906001600160f81b031916908160001a90535060049490941c936136e281614527565b9050613674565b508315611eeb5760405162461bcd60e51b815260206004820181905260248201527f537472696e67733a20686578206c656e67746820696e73756666696369656e746044820152606401610c3b565b6000818152600183016020526040812054801561382157600061375c60018361429f565b85549091506000906137709060019061429f565b90508181146137d55760008660000182815481106137905761379061422c565b90600052602060002001549050808760000184815481106137b3576137b361422c565b6000918252602080832090910192909255918252600188019052604090208390555b85548690806137e6576137e661453e565b600190038181906000526020600020016000905590558560010160008681526020019081526020016000206000905560019350505050610c0b565b6000915050610c0b565b60006001600160e01b03198216634a9e46fd60e11b1480610c0b5750610c0b826138c2565b61385b838383613902565b600d5460ff1615610e655760405162461bcd60e51b815260206004820152602b60248201527f4552433732315061757361626c653a20746f6b656e207472616e73666572207760448201526a1a1a5b19481c185d5cd95960aa1b6064820152608401610c3b565b60006001600160e01b031982166380ac58cd60e01b14806138f357506001600160e01b03198216635b5e139f60e01b145b80610c0b5750610c0b826139c5565b61390d8383836139ea565b6001600160a01b0383166139685761396381600b80546000838152600c60205260408120829055600182018355919091527f0175b7a638427703f0dbe7bb9bbf987a2551717b34e79f33b5b1008d1fa01db90155565b61398b565b816001600160a01b0316836001600160a01b03161461398b5761398b83826139f6565b6001600160a01b0382166139a257610e6581613a93565b826001600160a01b0316826001600160a01b031614610e6557610e658282613b42565b60006001600160e01b03198216635a05180f60e01b1480610c0b5750610c0b82613b86565b610e6583600083612e1c565b60006001613a0384611c6b565b613a0d919061429f565b6000838152600a6020526040902054909150808214613a60576001600160a01b03841660009081526009602090815260408083208584528252808320548484528184208190558352600a90915290208190555b506000918252600a602090815260408084208490556001600160a01b039094168352600981528383209183525290812055565b600b54600090613aa59060019061429f565b6000838152600c6020526040812054600b8054939450909284908110613acd57613acd61422c565b9060005260206000200154905080600b8381548110613aee57613aee61422c565b6000918252602080832090910192909255828152600c9091526040808220849055858252812055600b805480613b2657613b2661453e565b6001900381819060005260206000200160009055905550505050565b6000613b4d83611c6b565b6001600160a01b0390931660009081526009602090815260408083208684528252808320859055938252600a9052919091209190915550565b60006001600160e01b03198216637965db0b60e01b1480610c0b57506301ffc9a760e01b6001600160e01b0319831614610c0b565b828054613bc790614077565b90600052602060002090601f016020900481019282613be95760008555613c2f565b82601f10613c0257805160ff1916838001178555613c2f565b82800160010185558215613c2f579182015b82811115613c2f578251825591602001919060010190613c14565b50613c3b929150613c3f565b5090565b5b80821115613c3b5760008155600101613c40565b6001600160e01b03198116811461151157600080fd5b600060208284031215613c7c57600080fd5b8135611eeb81613c54565b6001600160a01b038116811461151157600080fd5b60008060408385031215613caf57600080fd5b8235613cba81613c87565b915060208301356001600160601b0381168114613cd657600080fd5b809150509250929050565b60005b83811015613cfc578181015183820152602001613ce4565b838111156121f75750506000910152565b60008151808452613d25816020860160208601613ce1565b601f01601f19169290920160200192915050565b602081526000611eeb6020830184613d0d565b600060208284031215613d5e57600080fd5b8135611eeb81613c87565b600060208284031215613d7b57600080fd5b5035919050565b60008060408385031215613d9557600080fd5b8235613da081613c87565b946020939093013593505050565b600080600060608486031215613dc357600080fd5b8335613dce81613c87565b92506020840135613dde81613c87565b929592945050506040919091013590565b60008060408385031215613e0257600080fd5b50508035926020909101359150565b60008060408385031215613e2457600080fd5b823591506020830135613cd681613c87565b634e487b7160e01b600052604160045260246000fd5b600067ffffffffffffffff80841115613e6757613e67613e36565b604051601f8501601f19908116603f01168101908282118183101715613e8f57613e8f613e36565b81604052809350858152868686011115613ea857600080fd5b858560208301376000602087830101525050509392505050565b600060208284031215613ed457600080fd5b813567ffffffffffffffff811115613eeb57600080fd5b8201601f81018413613efc57600080fd5b6127fa84823560208401613e4c565b80358015158114613f1b57600080fd5b919050565b60008060008060808587031215613f3657600080fd5b8435935060208501359250613f4d60408601613f0b565b9396929550929360600135925050565b60008060408385031215613f7057600080fd5b8235613f7b81613c87565b9150613f8960208401613f0b565b90509250929050565b60008060008060808587031215613fa857600080fd5b8435613fb381613c87565b93506020850135613fc381613c87565b925060408501359150606085013567ffffffffffffffff811115613fe657600080fd5b8501601f81018713613ff757600080fd5b61400687823560208401613e4c565b91505092959194509250565b6000806040838503121561402557600080fd5b823561403081613c87565b91506020830135613cd681613c87565b60208082526017908201527f4e6f742063616c6c65642066726f6d207468652064616f000000000000000000604082015260600190565b600181811c9082168061408b57607f821691505b6020821081036140ab57634e487b7160e01b600052602260045260246000fd5b50919050565b6020808252602e908201527f4552433732313a2063616c6c6572206973206e6f7420746f6b656e206f776e6560408201526d1c881b9bdc88185c1c1c9bdd995960921b606082015260800190565b634e487b7160e01b600052601160045260246000fd5b600081600019048311821515161561412f5761412f6140ff565b500290565b634e487b7160e01b600052601260045260246000fd5b60008261415957614159614134565b500490565b6020808252601f908201527f5265656e7472616e637947756172643a207265656e7472616e742063616c6c00604082015260600190565b600082198211156141a8576141a86140ff565b500190565b6000602082840312156141bf57600080fd5b5051919050565b6000600182016141d8576141d86140ff565b5060010190565b600381106141fd57634e487b7160e01b600052602160045260246000fd5b9052565b84815260208101849052604081018390526080810161422360608301846141df565b95945050505050565b634e487b7160e01b600052603260045260246000fd5b6020808252603a908201527f416464726573733a20756e61626c6520746f2073656e642076616c75652c207260408201527f6563697069656e74206d61792068617665207265766572746564000000000000606082015260800190565b6000828210156142b1576142b16140ff565b500390565b6000826142c5576142c5614134565b500690565b6000602082840312156142dc57600080fd5b8151611eeb81613c87565b600083516142f9818460208801613ce1565b83519083019061430d818360208801613ce1565b01949350505050565b600181815b80851115614351578160001904821115614337576143376140ff565b8085161561434457918102915b93841c939080029061431b565b509250929050565b60008261436857506001610c0b565b8161437557506000610c0b565b816001811461438b5760028114614395576143b1565b6001915050610c0b565b60ff8411156143a6576143a66140ff565b50506001821b610c0b565b5060208310610133831016604e8410600b84101617156143d4575081810a610c0b565b6143de8383614316565b80600019048211156143f2576143f26140ff565b029392505050565b6000611eeb8383614359565b60208082526032908201527f4552433732313a207472616e7366657220746f206e6f6e20455243373231526560408201527131b2b4bb32b91034b6b83632b6b2b73a32b960711b606082015260800190565b7f416363657373436f6e74726f6c3a206163636f756e7420000000000000000000815260008351614490816017850160208801613ce1565b7001034b99036b4b9b9b4b733903937b6329607d1b60179184019182015283516144c1816028840160208801613ce1565b01602801949350505050565b6001600160a01b038581168252841660208201526040810183905260806060820181905260009061450090830184613d0d565b9695505050505050565b60006020828403121561451c57600080fd5b8151611eeb81613c54565b600081614536576145366140ff565b506000190190565b634e487b7160e01b600052603160045260246000fdfe8c0bdd7bca83c4e0c810cbecf44bc544a9dc0b9f265664e31ce0ce85f07a052ba2646970667358221220352d1e42e1baed6760fe9f97d6b7e1e6b2983dfd300cc6f87e9b7c56e758cf5964736f6c634300080e0033",
    "linkReferences": {},
    "deployedLinkReferences": {}
}